:100000000C943B020C9482020C9482020C948202A7
:100010000C9482020C9482020C9482020C94820250
:100020000C9482020C9482020C9402210C94D42130
:100030000C94FB170C9482020C9482020C948202A2
:100040000C9482020C9482020C9482020C94820220
:100050000C9482020C9448180C9482020C94820234
:100060000C9482020C9482020C9482020C94820200
:100070000C9482020C9482020C9482020C948202F0
:100080000C9482020C9482020C9482020C948202E0
:100090000C9482020C9482020C9482020C948202D0
:1000A0000C9482020C9482020C948202560D560D1E
:1000B000880D880DD50DF30D140F140FFE0D930E42
:1000C000A40EA40E040F140F140F0D0FB40FB40FD1
:1000D000C60FC60FBD0FC60FC60FC60FB40FB40FA5
:1000E000C20FC60FC60FC20F4122682260236822CA
:1000F0006023B422D72260232E233D2327001E0035
:100100001F002000210022002300240025002600DB
:10011000040005000600070008000151005C010012
:1001200001000100BF5C010001000100BE5CC05C79
:100130000100010001000100010000510100010067
:1001400001000100010001000100010001000100A7
:100150000100010001000100010001000100010097
:100160000100010001000100010001000100010087
:100170000100010001000100010001000100010077
:100180000100010001000100010001000100010067
:100190000100010001000100010001000100010057
:1001A0000100010001000100010001000100010047
:1001B0000100010001000100010001000100010037
:1001C0000100010001000100010001000100010027
:1001D0000100010001000100010001000100010017
:1001E0000100010001000100010001000100010007
:1001F00001000100010001000100010001000100F7
:1002000001000100010001000100010001000100E6
:1002100001000100010001000100010001000100D6
:1002200001000100010001000100010001000100C6
:1002300001000100010001000100010001000100B6
:1002400001000100010001000100010001000100A6
:100250000100010001000100010001000100010096
:100260000100010001000100010001000100010086
:100270000100010001000100010001000100010076
:100280000100010001000100010001000100010066
:100290000100010001000100010001000100010056
:1002A0000100010001000100010001000100010046
:1002B0000100010001000100010001000100010036
:1002C0000100010001000100010001000100010026
:1002D0000100010001000100010001000100010016
:1002E0000100010001000100010001000100010006
:1002F00001000100010001000100010012036B0078
:100300006500790062006F00610072006400000007
:10031000160371006D006B006200750069006C00CF
:1003200064006500720000000403090409023B0038
:10033000020100A0FA0904000001030101000921E3
:10034000110100012240000705810308000A090489
:100350000100010300000009211101000122BC007D
:100360000705820320000A1201100100000008EDB9
:10037000FE606001000102000105010902A1018582
:10038000020901A10005091901290515002501959A
:100390000575018102950175038101050109300987
:1003A000311581257F95027508810609381581254B
:1003B0007F950175088106050C0A38021581257F95
:1003C000950175088106C0C005010980A10185035A
:1003D00019012AB700150126B70095017510810093
:1003E000C0050C0901A101850419012AA00215010B
:1003F00026A002950175108100C005010906A10122
:100400008505050719E029E71500250195087501FF
:1004100081020507190029EF1500250195F07501E6
:1004200081020508190129059505750191029501BB
:1004300075039101C005010906A101050719E0290D
:10044000E715002501950875018102950175088160
:10045000010507190029FF150026FF0095067508FC
:10046000810005081901290595057501910295017D
:1004700075039101C00011241FBECFEFDAE0DEBF8B
:10048000CDBF04B603FE27C0809150029091510267
:10049000A0915202B09153028730904BA740B04BCD
:1004A000D1F4109250021092510210925202109206
:1004B000530214BE84B7877F84BF0FB6F894A89503
:1004C00080916000886180936000109260000FBE90
:1004D000E0E0F8E3099511E0A0E0B1E0ECE0F8E439
:1004E00002C005900D92A038B107D9F722E0A0E82C
:1004F000B1E001C01D92A035B207E1F70E94421E93
:100500000C9404240C94000080E090E00895089579
:10051000089581E008950895209A219A229A239AB5
:10052000289A299A2A9A2B9A249A259A269A279ABF
:10053000509A519A529A539A549A559A569A579A4F
:100540002C9A2D9A2E9A2F9A589A599A5A9A5B9ABF
:100550005C9A5D9A5E9A5F9A08958093330208953B
:1005600080910001813029F48FEF85B98BB92898EB
:100570001BC0823029F48FEF85B98BB9289859C0F8
:10058000833029F48FEF85B98BB928985CC084300B
:1005900029F48FEF85B98BB928983AC0853041F49A
:1005A0008FEF85B98BB929985F985E985C984EC09B
:1005B000863029F48FEF85B98BB929983AC08730F6
:1005C00029F48FEF85B98BB929983DC0883029F47B
:1005D0008FEF85B98BB929981BC0893029F48FEF2B
:1005E00085B98BB92A98E0CF8A3029F48FEF85B985
:1005F0008BB92A981EC08B3029F48FEF85B98BB93F
:100600002A9821C08C3041F48FEF85B98BB92A9894
:100610002E982D982C981AC08D3029F48FEF85B91B
:100620008BB92B98C1CF8E3041F48FEF85B98BB940
:100630002B985D985B985A9809C08F3059F48FEFCA
:1006400085B98BB92B98599858982F9880910001AB
:100650008F5F0AC0803151F48FEF85B98BB92B9829
:100660002E982D982C9881E0809300010895289A67
:10067000299A2A9A2B9A2C9A2D9A2E9A2F9A589A1E
:10068000599A5A9A5B9A5C9A5D9A5E9A5F9A089513
:10069000CF93DF9380913302813049F0A8F082300C
:1006A00069F0833089F4DF91CF910C94B002C4E1FA
:1006B000D0E00E94B0022197E1F706C0C8E2D0E086
:1006C0000E94B0022197E1F7DF91CF910C9437039C
:1006D00081E008950C94890208950C946C031F9393
:1006E000CF93DF9300D000D01F92CDB7DEB7498300
:1006F0005A836B833091920189819A81311114C0A0
:10070000662359F0222349F00E94EE14182F682F17
:1007100089819A810E94991403C00E94C314182FE2
:1007200069817A81812F04C00E94EE1469817A81E7
:100730000F900F900F900F900F90DF91CF911F911E
:100740000C942504FC01262F408151816281738124
:1007500084810C946F03CF93DF93EC0160E00E94DF
:10076000A203BE01DF91CF910C946D030E9420166D
:10077000811102C00E94DA160E948C020C943D0680
:100780000C943B0608950E94A20F0E94C2032FEF13
:1007900084E39CE0215080409040E1F700C00000DD
:1007A0000C946E180F931F93CF93DF93EC0161E0CD
:1007B0000E94A2038C01BE010E946A03882379F182
:1007C000BE01C8010E941808882349F1BE01C80172
:1007D0000E94E008882319F1BE01C8010E94320975
:1007E0008823E9F0BE01C8010E945D0A8823B9F0A0
:1007F0008A81882369F001158CE5180731F00F3DD7
:100800001C4531F40E94DA160AC00E94C30307C0D7
:10081000CE01DF91CF911F910F910C94680380E07E
:10082000DF91CF911F910F9108950C948B0281E07D
:1008300008950C941704CF93C82F0E9415048C2F91
:100840000E941904CF9108950895E72FF0E094E0F5
:10085000899FE00DF11D1124EE0FFF1FEE0FFF1F0A
:10086000E60FF11DEE0FFF1FE450FF4F85919491AD
:100870000895880F991FFC01E450FD4F85919491D4
:100880000895CF93DF930E9425040E945905EC013F
:100890008115904508F041C0C11580E4D80708F0E3
:1008A000D1C0C83ED10510F5C03ED10508F0FDC04D
:1008B000C83AD10578F4C53AD10508F0A2C0C130D4
:1008C000D10509F4F2C008F4EEC0C430D10508F037
:1008D000ECC0E9C0CF3BD10508F49BC0C03CD105BA
:1008E00008F4E1C0CE01805C91099EC0C11590E280
:1008F000D90758F4C11521E0D20708F0D6C0C03F8F
:10090000D10508F4D0C0D065D0C0C11580E3D807A8
:1009100008F08EC0CE019F7087C0C11595E5D9073C
:1009200008F043C0C11524E5D20708F0A2C0C115E4
:1009300082E5D80708F5C11591E5D90708F085C00B
:10094000CE0174E0969587957A95E1F783709C2F98
:10095000937021E030E002C0220F331F9A95E2F736
:100960003C68382BCF70C695C69580E2C89FE001E1
:100970001124C22BD32B99C09E01237033278C2FB7
:1009800086958695C115D34508F064C0C1E0D0E0D6
:1009900002C0CC0FDD1F2A95E2F720E2829FC00142
:1009A0001124C82BD92BDC6880C0C11529E5D207DA
:1009B000A0F4C11588E5D80708F060C0C11596E518
:1009C000D90708F070C08C2F0E94ED058F71C82FD9
:1009D000D0E0DC2FCC27D06268C0C1152AE5D20751
:1009E00008F451C0CE0190568115904208F05BC0CA
:1009F0008D2F8F710E94ED05DD27D0628F71D82B6E
:100A000054C0C55AD0E0CC5BDE4FC881D0E0D06482
:100A10004CC0C85AD0E0CC0FDD1FCA5EDE4F099033
:100A2000D881C02DD46441C00E943904EC013DC07E
:100A3000CE019927D3FF03C0EC01D86C36C0EC017E
:100A4000D06C33C0DF70D06A30C0DC2FCC27C16FD0
:100A5000D06A2BC0C1E0D0E002C0CC0FDD1F2A95C8
:100A6000E2F720E2829FC0011124C82BD92BDA685B
:100A70001CC0DC2FCC27C46FD06A17C0DC2FCC275A
:100A8000C06FD06A12C08C2F8F700E94ED0594E069
:100A9000D695C7959A95E1F7CF70D0E0DC2FCC279B
:100AA000D069C82B02C0C0E0D0E0CE01DF91CF9169
:100AB00008958238910569F1B0F48133910509F404
:100AC0006DC048F48932910509F463C08A329105FA
:100AD00009F469C008958533910509F455C0893337
:100AE0009105B9F00895833E910569F138F4803E8F
:100AF0009105B1F0823E910509F10895863E910578
:100B0000A9F1873E9105B9F1843E910509F064C0D1
:100B100023C02091410220FD4FC021FD4DC008950A
:100B20008091410280FD44C08091420280FF44C018
:100B30008091410284FD42C083EE4DC0809141020C
:100B400082FF38C0F5CF8091410282FD33C0809191
:100B5000420280FD31C0ECCF8091420281FF32C061
:100B60008091410284FD2AC087EE35C08091410208
:100B700083FF26C0F5CF8091410283FD21C0809183
:100B8000420281FD1FC0ECCF8091410285FD1CC057
:100B90001DC08091410285FD19C016C0809141029F
:100BA00086FD16C017C08091410286FD13C010C09B
:100BB00089E311C082EE0FC080EE0DC080E00BC053
:100BC00086EE09C084EE07C089E205C085E303C054
:100BD0008AE201C081E390E008959091410292FF82
:100BE0000DC0282F2871283019F4877F846006C033
:100BF000282F2471243011F48B7F886093FF0DC05F
:100C0000282F2871283119F4877E846106C0282F87
:100C10002471243111F48B7E88612091420220FFDF
:100C20000DC0382F3871383019F4877F816006C0C5
:100C3000382F3171313011F48E7F886021FF0DC063
:100C4000282F2871283119F4877E816106C0282F4A
:100C50002171213111F48E7E886194FD877E089583
:100C6000E82FF0E0E85CFD4F80810895089580EA68
:100C70008A95F1F708950C9488020C948702F894F1
:100C8000E82FE295EF70F0E031A1282F2F7081E07E
:100C900090E001C0880F2A95EAF7982F909593234A
:100CA00091A392A1892B82A37894089587E60E944C
:100CB0003F0686E60E943F0687EF0E943F0686EFCA
:100CC0000E943F0685EF0E943F0684EF0E943F0688
:100CD00081EF0E943F0680EF0E943F06A4E3B2E04E
:100CE0001C92E8E3F2E0108211961C921197118297
:100CF00012961C921297128213961C92138284E011
:100D00000E9407070C94B6038F929F92AF92BF92F6
:100D1000CF92DF92EF92FF920F931F93CF93DF93C7
:100D20008BE4A82E81E0B82EC4E3D2E09FE4E92E44
:100D300091E0F92E912C01E010E06501F501808130
:100D4000F894E82FE295EF70F0E021A18F70A801F0
:100D500002C0440F551F8A95E2F7CA01922F982BC3
:100D600091A392A18095892382A378940E9437064B
:100D7000E7E4F1E020E030E0812C4191A42FA2953E
:100D8000AF70B0E090968C9190E04F7002C0959556
:100D900087954A95E2F780FD07C0802F022E01C09B
:100DA000880F0A94EAF701C080E0882A2F5F3F4F3E
:100DB0002430310511F75FEFA51AB50AF6018081DD
:100DC0000E943F068881881619F0888281E001C060
:100DD00080E0982A2196EA14FB0409F0AECF292D71
:100DE00044E068E372E084E392E00E9408070E9416
:100DF000C003892DDF91CF911F910F91FF90EF904C
:100E0000DF90CF90BF90AF909F908F9008950895FE
:100E1000FF920F931F93CF93DF938C01F62ED72F62
:100E2000C42F222349F081E0809382010E942D1873
:100E30009093810180938001809182018823C1F089
:100E400080918001909181010E943918069780F06D
:100E5000EF2DFD2FD8014C2F50E0CD01801B910BC1
:100E6000841795071CF48D918193F7CF109282011E
:100E7000DF91CF911F910F91FF9008950E9420164E
:100E8000811102C00E94DA160E945B1680933C0218
:100E9000282F26952695269530E02430310524F01C
:100EA0008770886180933C0280913C0280FF04C07F
:100EB00086958695869501C080E00C94AD022091C0
:100EC0003C02822F869586958695482F50E04330C8
:100ED000510554F48F5F982F990F990F990F822F16
:100EE0008770892B80933C0280913C0281608093C3
:100EF0003C020E945F1680913C02869586958695FD
:100F00000C94AD0280913C02982F969596959695FB
:100F1000A1F0915E990F990F990F8770892B80939B
:100F20003C02887F91E009F490E080913C0290FBC4
:100F300080F980933C020E945F1680913C02869566
:100F4000869586950C94AD0280913C0280FD13C07D
:100F5000816080933C02813019F489E080933C02E7
:100F600080913C020E945F1680913C028695869596
:100F700086950C94AD02089580913C0280FF08C0D4
:100F80008E7F80933C020E945F1680E00C94AD023D
:100F9000089580913C0280FD0C94BC070C94A4073A
:100FA00090913C02892F8695869586958F5F8F71EB
:100FB0009770843038F4880F880F880F892B8093BE
:100FC0003C0202C090933C0280913C02887F91E0F9
:100FD00009F490E080913C0290FB80F980933C0200
:100FE0000E945F1680913C028695869586950C94AA
:100FF000AD02843008F083E090913C029770282F76
:10100000220F220F220F922B90933C02987F21E017
:1010100009F420E090913C0220FB90F990933C026F
:101020000C94AD020E94F90780913C020C945F166B
:101030009C01FB018281882349F12E3BFCE53F079F
:10104000C9F040F42C3BECE53E0769F02D3B3C45F4
:1010500061F00895203C9CE5390791F070F0213C47
:101060003C4589F0089583E001C080E00E941208A9
:1010700080E008950E948207FBCF0E945F07F8CFAF
:101080000E94C907F5CF0E94D007F2CF81E00895F2
:10109000AF92BF92CF92DF92EF92FF920F931F9386
:1010A000CF93DF937C015B01C42FD22FFC0182819F
:1010B0008823F9F0409385010E942D1890938401B4
:1010C0008093830180E28C0F883008F06EC0C77077
:1010D00081E001C0880FCA95EAF7DF91CF911F9197
:1010E0000F91FF90EF90DF90CF90BF90AF900C9456
:1010F000120D80918501481335C080918301909134
:1011000084010E9439186C01B701C5010E945B126D
:10111000C816D90638F510E21D0FCD17B9F080E2D8
:101120008C0F883040F4C77081E001C0880FCA95E9
:10113000EAF70E94190D183058F581E09D2F97703D
:1011400001C0880F9A95EAF70E94120D802F0E9425
:10115000FF0C183050F5D77081E001C0880FDA9588
:10116000EAF70AC080E28C0F8830F8F4C77081E09B
:1011700001C0880FCA95EAF7DF91CF911F910F91B7
:10118000FF90EF90DF90CF90BF90AF900C94190D2F
:10119000802FDF91CF911F910F91FF90EF90DF9003
:1011A000CF90BF90AF900C94FF0CDF91CF911F9127
:1011B0000F91FF90EF90DF90CF90BF90AF90089588
:1011C0000F939C01CB01243F4CE5340731F188F4A7
:1011D000293DFCE53F07D9F02A3D4CE5340779F17C
:1011E000283D3C45A9F506E221EE41EE68ED7CE59F
:1011F0002BC0263FFCE53F07E1F0A8F0273F3C4528
:1012000039F507E225EE46EE67EF7CE51DC007E203
:1012100025EE45EE69ED7CE517C006E221EE40EED5
:1012200064EF7CE511C007E225EE44EE65EF7CE556
:101230000BC006E221EE42EE66EF7CE505C008E257
:1012400021E045EE6AED7CE50E94480880E008C098
:10125000FC018281882319F01092850101C081E090
:101260000F910895CF93DF93EC01FB0182818823D6
:1012700009F41FC1C230FCE5DF0708F41BC1C63109
:101280009CE5D90738F09E012B5F3C45293031059C
:1012900008F010C10E943D169093420280934102D3
:1012A000C031ECE5DE0709F4C3C008F041C0C83026
:1012B0008CE5D80709F49AC0F0F4C430ECE5DE07F9
:1012C00009F487C068F4C2308CE5D80709F477C008
:1012D000C330DC4509F0E3C080914102826076C0F2
:1012E000C630ECE5DE0709F46EC008F07BC08091E3
:1012F000410288606BC0CC308CE5D80709F485C00A
:1013000068F4CA30ECE5DE0709F474C008F079C06F
:101310000E94A20F80914102806858C0CE308CE5B7
:10132000D80709F476C008F07FC0809141028BC0D5
:10133000CC3FECE5DE0709F44FC018F5C3318CE56E
:10134000D80709F47DC078F4C131ECE5DE0709F473
:1013500073C0C231DC4509F0A2C00E94A20F809187
:1013600041028F7733C0C5318CE5D80709F472C0CC
:1013700008F486C0CB3FDC4509F091C08091420261
:101380003EC0C115FDE5DF0709F45FC058F4CE3F4C
:101390009CE5D90709F444C008F43FC0809142029B
:1013A00082602DC0C230FDE5DF0709F475C008F486
:1013B0005DC0C330DD4509F072C080E06EC0809131
:1013C0004102816003C080914102806180934102AB
:1013D00066C08091410211C0809142028260809378
:1013E00042025DC0809141028062F0CF8091410253
:1013F0008064ECCF8091410288608460E7CF816097
:10140000EECF809141028E7FE1CF809141028D7FAE
:10141000DDCF80914102877FD9CF8091420218C0F1
:10142000809142028D7FDBCF809141028F7ECECFB3
:10143000809141028F7DCACF809141028F7BC6CFC0
:1014400080914102877F8B7FC1CF809142028D7F47
:101450008E7FC5CF8091410282FB222720F991E047
:10146000922790FB82F990FB83F9B0CF80914202E2
:10147000982F909591708E7F892B90FB81F9AFCF3B
:101480000E94A20F8091410287FB222720F991E060
:10149000922790FB87F99ACF81E00E94DC16809119
:1014A0004102909142020E944E160E94A20F80E0DB
:1014B00001C081E0DF91CF910895CF93DF93863112
:1014C0009C4541F5EB010E946F15982F8A81209170
:1014D000010130910201882379F09A7A81E009F4C0
:1014E00080E080938601911102C069E201C065E34A
:1014F000C9010E9477170AC080918601811102C03C
:1015000069E201C065E3C9010E9482170E94BD150E
:1015100080E001C081E0DF91CF91089590938C012C
:1015200080938B010895E0918B01F0918C013097AD
:1015300021F00190F081E02D099480E00895E09180
:101540008B01F0918C01309799F0209115012223A5
:1015500059F02091410227FF07C0DC012C91119620
:101560002C93119725E02C930280F381E02D0994B0
:101570000895E0918B01F0918C01309739F022E0D1
:10158000DC012C930480F581E02D099408952091CD
:10159000890130918A012817390771F090938A01E7
:1015A00080938901E0918B01F0918C01309721F0BB
:1015B0000680F781E02D09940895209187013091EC
:1015C00088012817390771F090938801809387016B
:1015D000E0918B01F0918C01309721F00084F1852E
:1015E000E02D0994089585B7806885BF85B7806828
:1015F00085BF089581E008950C94FA0A08950C942B
:10160000FE0A0C94FE0A0C94010B0C94FE0A0C9436
:10161000050B0C94FE0A0E94F30A0E94090B0C941D
:10162000070B0E9424180E9456060E94D6180E949A
:101630003E070C94030BAF92BF92CF92DF92EF92D2
:10164000FF920F931F93CF93DF93CDB7DEB72A9707
:101650000FB6F894DEBF0FBECDBF0E94FF0A0E94F6
:10166000FE0A0E9484060E94FC0A811111C08FEFBD
:1016700089838A831B820E942D188160782F9D8325
:101680008C8349815A816B818D810E94B90B40C046
:101690008EE8A82E81E0B82E00E010E0C02E802F4A
:1016A0000E943006E82EF501D1905F01D82631F472
:1016B0000F5F1F4F0430110589F7D9CF80910202C7
:1016C00081FD0E94360680E0FF24F3949D2D9F212A
:1016D000D1F08E83CF82EF2081E009F480E088870B
:1016E0000E942D188160782F9A8789874E815F81AB
:1016F00068858A850E94B90BF801E257FE4F808108
:10170000F826F08205C08F5FFF0C8430F9F6D0CF49
:101710000E9448030E94A71B0E94930A90918D018A
:101720008917B1F00E94930A80938D012A960FB613
:10173000F894DEBF0FBECDBFDF91CF911F910F9107
:10174000FF90EF90DF90CF90BF90AF900C941B0470
:101750002A960FB6F894DEBF0FBECDBFDF91CF91B2
:101760001F910F91FF90EF90DF90CF90BF90AF90BF
:101770000895CF93DF93CDB7DEB72B970FB6F894CC
:10178000DEBF0FBECDBF4F83588769877A878B87AF
:10179000DE01119686E0FD0111928A95E9F785E058
:1017A000FE01379601900D928A95E1F749815A81A1
:1017B0006B817C818D819E810E945E122B960FB67B
:1017C000F894DEBF0FBECDBFDF91CF910895FC012D
:1017D000808191810E9430150895CF93882309F468
:1017E000A4C0C82F8238C1F40E94930A81FD9DC015
:1017F00069E380910101909102010E9477170E9494
:10180000BD152FEF81EE94E0215080409040E1F72C
:1018100000C0000069E319C0833801F50E94930AF3
:1018200080FD83C063E580910101909102010E94D7
:1018300077170E94BD152FEF81EE94E02150804074
:101840009040E1F700C0000063E5809101019091B4
:1018500002010E948217CF910C94BD158438C1F407
:101860000E94930A82FD61C067E48091010190911A
:1018700002010E9477170E94BD152FEF81EE94E0C0
:10188000215080409040E1F700C0000067E4DDCFC8
:101890008CEF8C0F813AD0F46C2F809101019091E4
:1018A00002010E94F716882349F06C2F80910101F4
:1018B000909102010E9482170E94BD156C2F8091A9
:1018C0000101909102010E947717C5CF80E28C0F31
:1018D000883048F4C77081E001C0880FCA95EAF7E4
:1018E0000E947215B8CFEBE5EC0FE33040F4F0E066
:1018F000E358FE4F808190E0CF910C94C70AE8E551
:10190000EC0FE73150F4F0E0EE0FFF1FE15BFE4F0C
:1019100080819181CF910C94DD0AC03F30F08C2FF3
:101920000E949C1ACF910C94891BCF910895882313
:1019300009F464C0823879F40E94930A81FF5EC082
:1019400069E380910101909102010E9477170E9442
:10195000BD1569E310C08338B1F40E94930A80FF7B
:101960004DC063E580910101909102010E947717BB
:101970000E94BD1563E580910101909102010E94D2
:1019800082170C94BD15843879F40E94930A82FF63
:1019900035C067E480910101909102010E947717A0
:1019A0000E94BD1567E4E7CF9CEF980F913A10F4C1
:1019B000682FE1CF90E2980F983050F4877091E053
:1019C00001C0990F8A95EAF7892F0E947815D9CF1F
:1019D0009BE5980F933020F480E090E00C94C70AC8
:1019E00098E5980F973120F480E090E00C94DD0AA0
:1019F000803F20F00E94041B0C94891B0895CF9314
:101A0000C82F0E94ED0BC93349F42FEF87EE93E006
:101A1000215080409040E1F700C000008C2FCF9112
:101A20000C94970C882321F00E9472150C94BD151C
:101A30000895882321F00E9478150C94BD1508950F
:101A4000CF92DF92EF92FF920F931F93CF93DF938A
:101A50007C01062FC72FFC01158112951F70D281C2
:101A6000D1110E948F150E946815882399F0DD23FB
:101A700089F08C2F807F803421F080E2800F8830C5
:101A800048F082E00E9407160E94681591E0D82E67
:101A9000D92601C0D12CCC2EC2948FE0C8228C2D27
:101AA00090E0FC01EA5AFF4F0C94A8238C2F807F12
:101AB000CF70882311F0C295C07FDD2399F0CC232D
:101AC00009F48DC180E2800F883010F0011104C04C
:101AD0008C2F0E94721503C08C2F0E9482150E94C9
:101AE000BD157DC1802F0E94970CCC2309F49CC1A9
:101AF00080E2800F883010F0011104C08C2F0E940A
:101B0000781503C08C2F0E9488150E94BD158CC1CA
:101B10008C2F807FCF70803211F0C295C07F002360
:101B200019F00130C9F022C0DD2371F0112341F01A
:101B3000113031F40E94A2158C2B0E94AA1574C199
:101B40000E94A2158C2B1DC0112319F0113009F42D
:101B50006BC10E94B31525C0DD2321F0163008F0BB
:101B600063C10EC0153008F05FC11BC0DD2361F0FA
:101B7000112331F0F701858180FF31C18F7085839A
:101B80008C2F0E94120D50C1112359F0093309F016
:101B900037C1FFEF27EE83E0F15020408040E1F7AE
:101BA0002DC18C2F0E94190D3FC18C2F86958695D3
:101BB000837019F0813061F037C1DD2321F0802F6F
:101BC0009C2F937002C080E090E00E94C70A34C14D
:101BD000DD2321F0802F9C2F937002C080E090E0E5
:101BE0000E94DD0A29C1802FDD2319F00E949C1A72
:101BF00002C00E94041B0E94891B1EC18C2F83708F
:101C000009F045C0D11114C1402F42954695477047
:101C1000440F440F602F6F70862F90E0A0E0B0E07B
:101C2000042E04C0880F991FAA1FBB1F0A94D2F765
:101C300004FF10C00FE010E020E030E004C0000F0F
:101C4000111F221F331F4A95D2F70095109520953A
:101C5000309503C000E010E09801C695C695C370AA
:101C6000BC01CD01602B712B822B932BC23049F02C
:101C700058F4C13019F00E94AF13DAC00E949D13CE
:101C8000D7C00E94C113D4C00E949B13D1C0DD23D2
:101C900019F08C2F817001C08695882309F4C8C083
:101CA000402F429546954770440F440F602F6F7048
:101CB000862F90E0A0E0B0E0042E04C0880F991FAA
:101CC000AA1FBB1F0A94D2F704FF10C00FE010E058
:101CD00020E030E004C0000F111F221F331F4A957F
:101CE000D2F7009510952095309503C000E010E0E4
:101CF0009801C695C695C370BC01CD01602B712BB0
:101D0000822B932BC23049F058F4C13019F00E9455
:101D100074148EC00E9462148BC00E94861488C006
:101D20000E94D51385C0CF70DD2339F08C2F0E941F
:101D3000FB13802F0E94120D7BC0802F0E94190D73
:101D40008C2F0E941C1474C0023F01F128F4003F44
:101D500041F0013FA1F03FC0033FF9F0043F39F1EA
:101D60003AC0DD2341F0153008F05EC08C2F8F7132
:101D70000E94411459C0163008F056C0F7CFDD2339
:101D800039F08C2F8F710E94FB134EC0DD23C9F3F5
:101D90008C2F8F710E941C1447C0DD2329F08C2FDB
:101DA0008F710E94E61340C00E94E1133DC0DD2305
:101DB00049F0CF718C2F0E94FB1363E08C2F0E949F
:101DC000F21532C081E00E940716123068F182E0FD
:101DD0000E94071629C0DD2331F0112391F2802FD4
:101DE0000E94ED0B21C0112399F2093349F49FEFB2
:101DF000E7EEF3E09150E040F040E1F700C0000072
:101E0000802F0E94970C10C04C2F4F70602FC7017D
:101E10000E9484020E940C130FC04C2F4F70602F41
:101E2000C7010E94240408C088EF8C0D843020F480
:101E30000E94930A0E941B04DD20C9F00E946415D1
:101E400080FD15C0F70112820E945E150E94FB13EF
:101E5000C7010E94580F0E945E15DF91CF911F911C
:101E60000F91FF90EF90DF90CF900C941C14DF91B6
:101E7000CF911F910F91FF90EF90DF90CF90089539
:101E80000F931F93CF93DF93EC01688179818A814F
:101E90000E943B158C010E9498140E948913B8017E
:101EA000CE010E94200DDF91CF911F910F910895D7
:101EB000CF93DF93EC01988189812B813C81232B87
:101EC00031F08F3F31F481E09F3F19F403C081E08E
:101ED00001C080E080FD19C0CE010E94D2038111B3
:101EE0000CC00E946815882381F08A81882369F0DC
:101EF00082E0DF91CF910C940716CE010E94400F33
:101F0000CE01DF91CF910C94AB03DF91CF91089577
:101F10000E948F150E949F150E94BD150E94BA1C39
:101F20000E94891B80E090E00E94C70A80E090E058
:101F30000C94DD0A80910101909102010E948D179D
:101F40000C94880F0E947F150C949A0FE92FE2954C
:101F5000EF704E2F50E0FA013297EE30F105B0F4F9
:101F6000EA59FF4F0C94A823803F91F018F4883E63
:101F700068F40EC0843F51F40BC0883E48F0813FA6
:101F800029F406C093FB882780F9089580E008951E
:101F900081E008950E9430150E94A60F0895CF9306
:101FA000DF9300D000D01F92CDB7DEB70F900F9017
:101FB0000F900F900F90DF91CF910895CF93DF9303
:101FC00000D000D000D0CDB7DEB726960FB6F8947B
:101FD000DEBF0FBECDBFDF91CF9108951F93CF938A
:101FE000DF93C091930116E080919401C81799F096
:101FF000D0E01C9FF0011D9FF00D1124EB56FE4F09
:102000004081518162817381848195810E94DE0FBC
:102010002196C770E9CFDF91CF911F91089540912C
:10202000C5015091C6016091C7017091C8018091AE
:10203000C9019091CA010C94DE0F0F931F93CF93A7
:10204000DF938091CA0182958F7009F05DC0809105
:10205000C701882309F458C080919301109194011D
:102060006091C5017091C601C091C801D091C901AC
:1020700091E06F3F09F090E0292F06E0811709F405
:1020800043C0209721F07F3F21F030E003C031E0D2
:1020900001C0322F90E030FD34C0089FF001099F4D
:1020A000F00D1124DF01AB56BE4F11963C911197F4
:1020B000371327C03C91361324C012963C911297D7
:1020C00031111FC013964D915C9114974C1B5D0B01
:1020D000483C5105B0F48091CA018F7080618093B3
:1020E000CA01E656FE4F80818F708061808385EC47
:1020F00091E00E94580FDF91CF911F910F910C94A6
:10210000EE0F01968770BACFDF91CF911F910F919B
:1021100008959F92AF92BF92CF92DF92EF92FF927B
:102120000F931F93CF93DF93CDB7DEB761970FB6B1
:10213000F894DEBF0FBECDBF8C0185E0F801DE0153
:102140001D9601900D928A95E1F7F8014081518129
:10215000E2809091C5016091C6012091C801309143
:10216000C9012115310531F06F3F31F481E09F3F06
:1021700019F403C081E001C080E0F82FF1709F2EB8
:1021800080FD46C1F801A380B48085ECC82E81E0B3
:10219000D82EF090C701F501E21BF30BFF2009F4E4
:1021A000DFC08091CA01E83CF10508F09BC0282FF0
:1021B000207F09F052C0561313C0491311C0FE2CE2
:1021C000E1100EC08F7080618093CA010E940F10D1
:1021D000C6010E94580F8091CA01F801858358C139
:1021E000AB2831F05F3F31F481E04F3F19F403C079
:1021F00081E001C080E080FD03C081E08E2502C047
:1022000080E090E0F82FF170FF2E80FF1CC08091DD
:1022100093012091940136E0821709F417C190E0F0
:10222000389FF001399FF00D1124EB56FE4F61816C
:10223000561306C06081461303C06281E61203C0D4
:1022400001968770E9CFFE2CEE2009F421C1809120
:10225000CA0181608093CA015AC0561306C049134F
:1022600004C0E11002C0F8019FC04D875E878D85D4
:102270009E850E94CA0F882379F1EE2069F1209192
:10228000CA01822F82958F7090E0029774F080913E
:10229000C5019091C60198878F831986BB86AA864F
:1022A0002C87CE0107960E94580F86E0F801A5EC16
:1022B000B1E001900D928A95E1F70E941D100E94F5
:1022C0000F100DC0561729F14D875E878D859E85AD
:1022D0000E94CA0F81112CC0C8010E94580FFF2410
:1022E000F394D6C0282F207F69F77A2DB98AA88A5F
:1022F0006E2D89890E94CF0F85EC91E00E94580FC6
:1023000086E0F60111928A95E9F70E940F10F12CF0
:10231000BFC04913D9CFE110D7CFF8018583C801D9
:102320000E94580F86E0F60111928A95E9F7B0C035
:10233000EE2091F22091CA01822F82958F7090E059
:1023400002970CF4B2CF8091C5019091C6019A8397
:1023500089831B82BD82AC822E83CE010196A3CFDE
:10236000E83CF10508F047C0FE2CEE2009F4B4CF9C
:10237000561330C049132EC02091CA0120FD21C040
:10238000822F82958F70482F50E041155105C9F07A
:10239000F80125834F30510541F08F5F982F9295BA
:1023A000907F822F8F70892B8583C8010E94580FE0
:1023B00086E0F801A5ECB1E001900D928A95E1F775
:1023C00042C086E0F801A5ECB1E001900D928A953B
:1023D000E1F75EC04D875E878D859E850E94CA0F9E
:1023E000811163CF8091CA0181608093CA01C801C5
:1023F0000E94580F4DC07A2DB98AA88A6E2D8989FE
:102400000E94CF0F86E0F60111928A95E9F71BC072
:10241000EE2009F461CF4D875E878D859E850E94F1
:10242000CA0FF82E882309F457CF86E0F801A5ECEF
:10243000B1E001900D928A95E1F785EC91E00E9460
:10244000E70B0E941D100E940F1022C04D875E876F
:102450008D859E850E943015292F22952F70223060
:1024600028F49F7039F0811105C00BC0243028F486
:102470009F7049F4805E883020F0C8010E94580F98
:102480009F2CF92C05C0F8019581907F99F7F9CF21
:102490008F2D61960FB6F894DEBF0FBECDBFDF91D2
:1024A000CF911F910F91FF90EF90DF90CF90BF9051
:1024B000AF909F90089588EC90E008951F93CF937C
:1024C000DF93CDB7DEB72C970FB6F894DEBF0FBE03
:1024D000CDBF4F83588769877A878B879C87CE01CA
:1024E00007960E9489108823D1F09F8188852A85CC
:1024F0003B85232B31F08F3F31F481E09F3F19F46E
:1025000003C081E001C080E080FD47C04F81588555
:1025100069857A858B859C850E94DE0F3EC086E0AA
:10252000FE013796DE01119601900D928A95E1F732
:10253000FF81E8856A857B856115710531F0EF3F84
:1025400031F481E0FF3F19F403C081E001C080E075
:1025500080FD23C02091940130E0C901019687706D
:1025600099274091930150E084179507F1F1F98381
:10257000EA837D836C8396E0929FD001939FB00D98
:102580001124AB56BE4FFE01319601900D929A95E3
:10259000E1F7809394010E94EE0F16E08091930181
:1025A00090919401891771F1189FC00111248B56E5
:1025B0009E4F0E948910882329F1E09193011E9F6C
:1025C000F0011124EB56FE4F4081518162817381ED
:1025D000848195810E94DE0F8091930190E00196A5
:1025E0008770992780939301D9CF0E94A20F1092F0
:1025F000940110929301E5ECF1E086E0DF011D9279
:102600008A95E9F72C960FB6F894DEBF0FBECDBFC2
:10261000DF91CF911F910895EF92FF920F931F9337
:10262000CF93DF938C01892B09F46CC0F12CEE243D
:10263000E394E8012196F8018491843740F48430D2
:1026400008F051C0813081F0823019F15BC08537CC
:1026500009F444C0A8F19CE7980F903708F052C0E5
:102660008F770E94970C41C00E5F1F4FFE0184912F
:1026700090E2980F983050F48770FE2D01C0FF0F44
:102680008A95EAF78F2F0E94921514C00E94ED0BD5
:102690002DC00E5F1F4FFE01849190E2980F98307D
:1026A00060F48770FE2D01C0FF0F8A95EAF78F2F27
:1026B0000E9498150E94BD1519C00E94970C16C063
:1026C0000E5F1F4FFE01C491CC2381F08FE99FE084
:1026D0000197F1F700C00000C150F6CF0E5F1F4F09
:1026E000FE01F49003C00E94ED0B8E018F2D882314
:1026F00009F49FCFEFE9FFE03197F1F700C0000048
:102700008150F5CFDF91CF911F910F91FF90EF9006
:102710000895089508950C948A130C948B130E94C5
:102720008D136093D9017093DA018093DB0190934C
:10273000DC010C94880F0C948F130F931F9300915E
:10274000D9011091DA012091DB013091DC01602B7D
:10275000712B822B932B1F910F910C948F130F933E
:102760001F930091D9011091DA012091DB01309182
:10277000DC0160237123822393231F910F910C941A
:102780008F130F931F930091D9011091DA012091BB
:10279000DB013091DC0160277127822793271F918D
:1027A0000F910C948F130C948A130E94D31360938F
:1027B000D5017093D6018093D7019093D8010C94E2
:1027C000880F60E070E0CB010C94D5130F931F933A
:1027D00041E050E060E070E08A019B0104C0000F1E
:1027E000111F221F331F8A95D2F7C901B8011F910B
:1027F0000F910C94D5130F931F9341E050E060E0CC
:1028000070E004C0440F551F661F771F8A95D2F7EA
:102810008091D5019091D601A091D701B091D801B6
:102820008A019B01082B192B2A2B3B2BC901B801CC
:102830001F910F910C94D5130F931F9341E050E01B
:1028400060E070E004C0440F551F661F771F8A9533
:10285000D2F740955095609570958091D5019091F3
:10286000D601A091D701B091D8018A019B0108231C
:1028700019232A233B23C901B8011F910F910C94FE
:10288000D5130F931F9341E050E060E070E004C067
:10289000440F551F661F771F8A95D2F78091D50187
:1028A0009091D601A091D701B091D8018A019B01E6
:1028B000082719272A273B27C901B8011F910F9123
:1028C0000C94D5130F931F930091D5011091D6014D
:1028D0002091D7013091D801602B712B822B932B43
:1028E0001F910F910C94D5130F931F930091D50155
:1028F0001091D6012091D7013091D8016023712326
:10290000822393231F910F910C94D5130F931F9340
:102910000091D5011091D6012091D7013091D801B5
:1029200060277127822793271F910F910C94D5134D
:102930000895990F990F890FE82FE695E695E6958A
:10294000877051E001C0550F8A95EAF785E0E89F4E
:10295000F0011124E553FE4F20E030E070E04081AB
:10296000CB01022E02C0969587950A94E2F78170FA
:10297000819584278523842781932F5F3F4F2530BE
:10298000310569F70895990F990F890F682F66959A
:1029900066956695982F977085E0689FB001112421
:1029A00040E050E080E0FB01E40FF51FE553FE4FEF
:1029B000208130E0092E02C0369527950A94E2F76F
:1029C00021703327042E01C0220F0A94EAF7822BCC
:1029D0004F5F5F4F4530510531F70895BF92CF9259
:1029E000DF92EF92FF920F931F93CF93DF938C01AF
:1029F000C090D501D090D601E090D701F090D801D9
:102A00008091D9019091DA01A091DB01B091DC01B4
:102A1000C82AD92AEA2AFB2ACFE1D0E0D701C60189
:102A20000C2E04C0B695A795979587950A94D2F772
:102A300080FD04C0219790F7B12C07C0BC2EB801CF
:102A40008C2F0E9441040197A9F38B2DDF91CF9128
:102A50001F910F91FF90EF90DF90CF90BF9008955E
:102A6000CF93DF93EC010E94EE14BE010E9441045B
:102A7000DF91CF9108951F93CF93DF93EB01909156
:102A80009201992321F0CB010E94301513C08823B5
:102A900049F0CB010E94EE14182F682FCE010E943E
:102AA000991404C0CB010E94C314182FBE01812FBA
:102AB0000E944104DF91CF911F9108958091DD0123
:102AC00085958595859508958091DD018770089598
:102AD0009091DD01977081E009F480E00895809184
:102AE0000102089590910102892B809301020895BB
:102AF000809590910102892380930102089510929C
:102B00000102089590910002892B8093000208959C
:102B1000809590910002892380930002089510927D
:102B2000000208959091FF01892B8093FF01089581
:102B300080959091FF0189238093FF010895109261
:102B4000FF0108958091DE01089508950C94A51564
:102B50000C94A6159091DE01981721F08093DE0168
:102B60000C94A81508958091DE01882329F0109215
:102B7000DE0180E00C94A8150895E0910101F09128
:102B80000201809101028083E0910101F091020134
:102B9000908180910002892B8083E0910101F09166
:102BA000020190818091FF01892B80838091DE0159
:102BB000882381F0E0910101F09102019081892B3D
:102BC000808380910101909102010E94E1168111A0
:102BD0000E94B31580910101909102010C949F0A0B
:102BE0000C94A51598E0899F90011124262B209321
:102BF000DD010E94FB138091DD018595859585950A
:102C00000C94F0151092DD0180E00C94F0152091E9
:102C1000DD01809582238093DD01982F977079F4F0
:102C200030E0482F082E000C550B2417350739F0DB
:102C30008595859585950E941C140C94021608951F
:102C400080E090E00E94CA2321E08C3E9E4F09F074
:102C500020E0822F089582E090E00C94C223682F38
:102C600082E090E00C94D02383E090E00C94C223A7
:102C7000682F83E090E00C94D023CF9384E090E021
:102C80000E94C223C82F81E290E00E94C2232C2F11
:102C900030E0A901582BCA01CF910895CF93C92FD5
:102CA000682F84E090E00E94D0236C2F81E290E0B6
:102CB000CF910C94D02386E090E00C94C223682F2F
:102CC00086E090E00C94D023AB01BC018FE090E053
:102CD0000C94E223AB01BC0183E190E00C94E2236D
:102CE00060E070E0CB010C946A1660E070E0CB010C
:102CF0000E9464160C9470166CEE7EEF80E090E0FB
:102D00000E94EE2360E082E090E00E94D02360E029
:102D100083E090E00E94D0231092D9011092DA0152
:102D20001092DB011092DC0160E084E090E00E94F0
:102D3000D02360E081E290E00E94D02360E085E053
:102D400090E00E94D02360E086E090E00E94D023D3
:102D50006FEF87E090E00E94D02340E050E0BA019E
:102D600088E090E00E94E22360E08DE090E00E9425
:102D7000D02340E050E0BA0188E190E00E94E223D5
:102D800060E087E190E00E94D02340E050E0BA018B
:102D90008CE190E00E94E22360E080E290E00E94FB
:102DA000D02340E050E0BA0188E190E00E94E223A5
:102DB0000C9475160C947C16682F8EE090E00C94A1
:102DC000D023FC01329680911501882331F0809147
:102DD000410287FF02C09EE101C096E080E0915071
:102DE00028F021912223D9F38F5FF9CF089566232C
:102DF00051F1209115012223E9F02091410227FF92
:102E000019C0462F4695469546954E31E0F46770B9
:102E100021E030E002C0220F331F6A95E2F7FC0187
:102E2000E40FF11D828190E02823392381E0232BD8
:102E300069F409C0FC01329608962191621729F0C5
:102E4000E817F907D1F780E0089581E008959C0123
:102E5000FC0132969FEF80E04191461789F09F3F39
:102E600019F4411101C0982F8F5F8630A9F79F3F59
:102E700039F0F901E90FF11D97FDFA956283089584
:102E800008959C012A5F3F4FFC014281461301C017
:102E90001282019682179307B9F70895262F269577
:102EA000269526952E3168F4FC01E20FF11D67701E
:102EB00021E030E001C0220F6A95EAF78281282BD9
:102EC00022830895262F2695269526952E3170F477
:102ED000FC01E20FF11D677021E030E001C0220F1C
:102EE0006A95EAF72095828128232283089520910C
:102EF0001501222329F02091410227FD0C944E1741
:102F00000C94271720911501222329F020914102CA
:102F100027FD0C9462170C94411720911501FC01B8
:102F20003296222331F08091410287FF02C08EE168
:102F300001C086E0DF011D928A95E9F708950895A2
:102F40000C949F170C949F17CF930E94A2170E9476
:102F500084060E94A017C0E08C2F0E9430068111C9
:102F600004C0CF5FC430C1F701C081E0CF910895A4
:102F70000C949F170C94B8170E94BA1780914702BF
:102F8000843061F11092030220E488E190E00FB6F2
:102F9000F894A895809360000FBE2093600080E0B5
:102FA0000E94AD0280E00E941B040E94BA1783B702
:102FB000817F846083BF83B7816083BF7894889565
:102FC00083B78E7F83BF0FB6F894A8958091600079
:102FD000886180936000109260000FBE08950C9489
:102FE0009F170E94A20F0E943E070E94930A0E9410
:102FF0001B040C94EF171F920F920FB60F9211241F
:103000008F939F93AF93BF9380910302811113C05D
:1030100080913D0290913E02A0913F02B09140020A
:103020004196A11DB11D80933D0290933E02A09355
:103030003F02B0934002BF91AF919F918F910F904B
:103040000FBE0F901F90189582E084BD93E095BD50
:103050009AEF97BD80936E0008952FB7F8948091F2
:103060003D0290913E02A0913F02B09140022FBFDD
:1030700008959C014FB7F89480913D0290913E02D3
:10308000A0913F02B09140024FBF821B930B089565
:1030900078941F920F920FB60F9211248F939F93E3
:1030A000AF93BF9380913D0290913E02A0913F0269
:1030B000B09140020196A11DB11D80933D029093F5
:1030C0003E02A0933F02B0934002BF91AF919F9107
:1030D0008F910F900FBE0F901F90189581E08093F5
:1030E000E00080E28093D8001092C9008FE19EE456
:1030F0000197F1F700C0000087E090EBDC018093BE
:10310000500290935102A0935202B09353029CE05C
:1031100088E10FB6F894A895809360000FBE909355
:103120006000FFCFCF92DF92EF92FF920F931F9339
:10313000CF93C0E0E82EF12C8C2F0E94300600E0E7
:1031400010E0C82ED12CC601002E02C0959587959F
:103150000A94E2F780FD06C00F5F1F4F043011058F
:1031600091F70AC0602F7C2F80E00E942504E816AA
:10317000F90691F781E004C0CF5FC430E9F680E042
:10318000CF911F910F91FF90EF90DF90CF90089516
:10319000CF93C82F8CE20E949218882321F08C2FA5
:1031A000CF910C94921880E0CF910895CF930E9414
:1031B0002016811102C00E94DA16C5E6C15049F0FE
:1031C0000E9484068FE39CE90197F1F700C000009C
:1031D000F5CF89E20E94C81881112AC18AE20E94B3
:1031E000C81881110E94DA1685E00E94C818811162
:1031F0000E946E180E942B168093020287E00E94A4
:10320000C8188823A9F18BE10E94C818882351F0BF
:103210008091020281FB222720F991E0922790FB06
:1032200081F90EC08EE00E94C818882361F0809159
:10323000020282FB222720F991E0922790FB82F97B
:103240008093020215C080E10E94C818909102028A
:10325000882341F093FB222720F981E0822780FB1D
:1032600093F904C0892F809580FB90F99093020216
:10327000809102020E942F160E943D1690934202F6
:103280008093410280EE0E94C818882341F080910B
:103290004102982F909590FB80F98093410289E339
:1032A0000E94C818882359F08091410281FB22278F
:1032B00020F991E0922790FB81F98093410282EE00
:1032C0000E94C818882359F08091410282FB22276E
:1032D00020F991E0922790FB82F98093410286EEDB
:1032E0000E94C818882359F08091410283FB22274D
:1032F00020F991E0922790FB83F98093410283EEBD
:103300000E94C818882359F08091410284FB22272B
:1033100020F991E0922790FB84F98093410285E3A4
:103320000E94C818882359F08091410285FB22270A
:1033300020F991E0922790FB85F98093410281E387
:103340000E94C818882359F08091410286FB2227E9
:1033500020F991E0922790FB86F98093410281E168
:103360000E94C818882359F08091410287FB2227C8
:1033700020F991E0922790FB87F980934102809198
:103380004102909142020E944E1687E20E94C818A4
:10339000C82F8EE10E94C8188111C2608FE10E947F
:1033A000C8188111C46080E20E94C8188111C860E9
:1033B00081E20E94C8188111C06182E20E94C8188F
:1033C0008111C06283E20E94C8188111C06484E246
:1033D0000E94C818882311F0C06802C0CC2329F0CD
:1033E0008C2F0E9438166C2F03C00E943416682F51
:1033F00070E080E090E00E949B136091D501709195
:10340000D6018091D7019091D8010E94D3138FE00B
:103410000E94C818882319F081E00E94DC1685E11B
:103420000E94C818882321F080E0CF910C94DC160C
:10343000CF91089580910A0280FF0BC0609108012E
:1034400085E0689FB001112475956795759567951E
:103450002BC081FF09C06091080185E0689FB00121
:1034600011247595679520C082FF07C060910801FF
:1034700085E0689FB001112417C09091090299233B
:10348000D1F060910701961788F72091080185E037
:10349000289F90011124929FA001939F500D112409
:1034A00070E0CA010E9494236038710540F46115F0
:1034B000710519F406C065E070E0862F08958FE766
:1034C000089581E0089580910A0280FF08C060910C
:1034D000040170E0759567957595679521C081FF2A
:1034E00006C06091040170E07595679519C082FF70
:1034F00004C06091040170E010C09091080299230B
:1035000099F0609103019617A0F780910401899FBB
:10351000C001112470E00E9494236038710540F4CA
:103520006115710519F406C061E070E0862F0895F9
:103530008FE7089581E00895803F21F40E941A1AD0
:10354000819504C0813F29F40E941A1A80930E02CB
:103550000895823F21F40E941A1A819504C0833F86
:1035600029F40E941A1A80930D020895893F19F4D4
:103570000E94631A05C08A3F31F40E94631A819544
:1035800080930F0208958B3F21F40E94631A819566
:1035900004C08C3F29F40E94631A8093100208959E
:1035A000843F21F480910C02816017C0853F21F493
:1035B00080910C02826011C0863F21F480910C0240
:1035C00084600BC0873F21F480910C02886005C0A5
:1035D000883F31F480910C02806180930C02089541
:1035E0008D3F21F480910A0281600BC08E3F21F44F
:1035F00080910A02826005C08F3F29F480910A02FF
:10360000846080930A020895803F39F480910E020D
:1036100087FF6AC010920E0267C0813F29F4809133
:103620000E021816BCF360C090910D02823F29F47F
:1036300097FF5AC010920D0257C0833F19F4191614
:10364000CCF352C090910F02893F31F419160CF05F
:103650004BC010920F0248C08A3F19F497FF44C034
:10366000F8CF8B3F39F48091100287FF3DC0109254
:1036700010023AC08C3F29F4809110021816BCF356
:1036800033C0843F21F480910C028E7F17C0853FA8
:1036900021F480910C028D7F11C0863F21F480912E
:1036A0000C028B7F0BC0873F21F480910C02877F37
:1036B00005C0883F31F480910C028F7E80930C020C
:1036C00013C08D3F21F480910A028E7F0BC08E3F84
:1036D00021F480910A028D7F05C08F3F29F48091EB
:1036E0000A028B7F80930A0280910D02811106C02D
:1036F00080910E02811102C01092090280910F0286
:10370000811106C080911002811102C0109208023E
:1037100008950E942D1820910D02211104C02091BE
:103720000E02222321F0909307028093060220913B
:103730000F02211104C020911002222321F0909346
:103740000502809304028BE092E00C94B90AEF9298
:10375000FF920F931F93CF93DF9300D000D000D040
:10376000CDB7DEB786E0EBE0F2E0DE011196019026
:103770000D928A95E1F7E0900D02F0900E02009113
:103780000F021091100210920D0210920E02109270
:103790000F0210921002E11003C0FF2009F45DC077
:1037A00080910602909107020E943918AC01909115
:1037B0000902992339F02091090130E024173507D7
:1037C00058F04BC020910A018AE0289F90011124F3
:1037D0002417350718F041C09F3F19F09F5F909361
:1037E0000902EE2061F00E941A1A1E1414F09FEFD5
:1037F00001C091E0989F902D112490930D02FF201D
:1038000061F00E941A1A1F1414F09FEF01C091E09A
:10381000989F902D112490930E0230910D02332326
:10382000E1F020910E022223C1F045EB3403C001E8
:103830001124992319F090930D0203C081E0809325
:103840000D0235EB2303C0011124992319F0909345
:103850000E0203C081E080930E02011103C0112308
:1038600009F45DC080910402909105020E9439180C
:10387000AC0190910802992339F02091050130E0C4
:103880002417350758F04BC0209106018AE0289F85
:10389000900111242417350718F041C09F3F19F0FB
:1038A0009F5F90930802002361F00E94631A101634
:1038B00014F09FEF01C091E0989F902D11249093F8
:1038C0000F02112361F00E94631A111614F09FEF8A
:1038D00001C091E0989F902D112490931002309197
:1038E0000F023323E1F0209110022223C1F045EBB7
:1038F0003403C0011124992319F090930F0203C0DF
:1039000081E080930F0235EB2303C001112499233A
:1039100019F09093100203C081E08093100280910F
:103920000D0281110BC080910E02811107C08091A0
:103930000F02811103C08091100281110E94891B26
:10394000EB82FC820D831E8386E0FE013196ABE0A4
:10395000B2E001900D928A95E1F726960FB6F894A1
:10396000DEBF0FBECDBFDF91CF911F910F91FF90B2
:10397000EF900895EBE0F2E086E0DF011D928A957A
:10398000E9F7109209021092080210920A020895B3
:10399000809131020895CF93DF9300D01F92CDB76D
:1039A000DEB790914702943019F589837B836A834F
:1039B00082E08093E9008FEF9091E800815095FDBF
:1039C00006C095ED9A95F1F700008111F5CF809131
:1039D000E80085FF0DC040E050E063E070E0CE01FC
:1039E00001960E94F61E8091E8008E778093E80091
:1039F0000F900F900F90DF91CF910895BC0184E05C
:103A00000C94CB1CBC0183E00C94CB1C22E02093D3
:103A1000E9002FEF3091E800215035FD06C035ED6B
:103A20003A95F1F700002111F5CF2091E80025FF2C
:103A30000BC040E050E066E070E00E94F61E80910E
:103A4000E8008E778093E8000895CF93DF9320916C
:103A50001501222339F02091410227FF03C060E2C3
:103A600022E002C068E021E02093E9002FEF3091CE
:103A7000E800215035FD06C035ED3A95F1F700001C
:103A80002111F5CF2091E80025FF1DC0EC018091A8
:103A90001501811105C040E050E068E070E003C00E
:103AA00070E040E050E0CE010E94F61E8091E800F8
:103AB0008E778093E80080E2FE01A1E1B2E0019000
:103AC0000D928A95E1F7DF91CF910895809146029A
:103AD000811109C00E9487200E94E4208091E200A9
:103AE00084608093E200089510924602089508953C
:103AF00008950C94F11742E061EC81E00E940020EF
:103B000042E261EC82E00C94002080914902833013
:103B100009F460C030F4813071F0823009F499C04A
:103B200008958A3009F485C08B3009F46BC0893060
:103B300009F0A7C020C080914802813A09F0A1C0D5
:103B40008091E800877F8093E80080914C029091FB
:103B50004D02892B21F460E281E192E003C060E034
:103B600080E090E070E00E94411F8091E8008B7738
:103B70008093E800089580914802813209F081C065
:103B800080914C0290914D02029708F07AC080918A
:103B9000E800877F8093E8008091E80082FD05C0FF
:103BA000809147028111F8CF6CC02091F300809181
:103BB000F20090E0922B029729F48091F1008B7F24
:103BC000813021F48091F100809331028091E800EE
:103BD0008B7753C080914802813A09F052C080919E
:103BE0004C0290914D02892B09F04BC08091E80066
:103BF000877F8093E8008091E80080FFFCCF809170
:103C0000150136C0809148028132D9F580914C026D
:103C100090914D02892BA9F58091E800877F8093D0
:103C2000E8000E94352080914A02809315010C948F
:103C3000A20F80914802813221F58091E800877FB0
:103C40008093E8000E94352080914B0280933202DD
:103C5000089580914802813AA1F48091E800877F1D
:103C60008093E8008091E80080FFFCCF80913202D1
:103C70008093F1008091E8008E778093E8000C94A7
:103C80003520089584B7877F84BF0FB6F894A89530
:103C900080916000886180936000109260000FBE88
:103CA00090E080E80FB6F8948093610090936100F3
:103CB0000FBE0E940B0B0E9487200E94E42080917F
:103CC000E20084608093E20078940E9479230E944D
:103CD000110B8BE091E00E948E0A809147028530A3
:103CE00069F40E94BC17809145028823B1F30E94B9
:103CF000A417882391F30E94E01EEFCF0E941B0BB4
:103D00000E94FF0A0E94FE0AE8CF0C94871E292F0A
:103D1000332723303105C9F060F42130310581F0BB
:103D20002230310509F044C08BE390E02CE233E00F
:103D300043C021323105E1F02232310549F138C06A
:103D400082E190E027E633E037C099278130910582
:103D500049F028F0029761F5ECEFF2E005C0E8E2E7
:103D6000F3E002C0E0E1F3E0849190E09F0124C021
:103D70006115710541F061307105D1F489E090E081
:103D800027E533E019C089E090E02EE333E014C06A
:103D90006115710541F06130710551F48CEB90E0D3
:103DA00029E733E009C080E490E025E334E004C073
:103DB00080E090E020E030E0FA0131832083089534
:103DC00080E189BD82E189BD09B400FEFDCF80910B
:103DD000D8008F7D8093D8008091E000826080932E
:103DE000E0008091E00081FDFCCF0895CF92DF924A
:103DF000EF92FF920F931F93CF93DF93EC018B0110
:103E00007A010E945420811133C0E114F10439F089
:103E1000F70180819181081B190BC80FD91FC12C94
:103E2000D12C0115110519F18091E80085FD16C00E
:103E30008091E8008E778093E800E114F10449F066
:103E4000F70180819181C80ED91ED182C08285E0A0
:103E50000FC00E945420882321F30AC089918093C7
:103E6000F10001501109FFEFCF1ADF0ADACF80E02D
:103E7000DF91CF911F910F91FF90EF90DF90CF9046
:103E8000089520914E0230914F022617370748F0CF
:103E90006115710539F42091E8002E772093E80030
:103EA00001C0B901FC0120E06115710579F1809133
:103EB00047028823F1F18530F1F18091E80083FD1C
:103EC0003CC08091E80082FD2EC08091E80080FF18
:103ED000EBCF2091F3008091F20090E0922B6115DE
:103EE000710551F08830910538F421912093F1004B
:103EF000615071090196F3CF21E0089709F020E0A5
:103F00008091E8008E778093E800CECF2111CFCF4B
:103F10000AC080914702882361F0853061F080916A
:103F2000E80083FD0AC08091E80082FFF2CF80E0C4
:103F3000089582E0089583E0089581E00895209136
:103F40004E0230914F022617370748F06115710570
:103F500039F42091E8002E772093E80001C0B901E0
:103F6000FC0120E06115710591F1809147028823E1
:103F700009F440C0853009F43FC08091E80083FD1A
:103F80003DC08091E80082FD2FC08091E80080FF55
:103F9000E9CF2091F3008091F20090E0922B61151F
:103FA000710559F08830910540F424912093F10077
:103FB0003196615071090196F2CF21E0089709F01E
:103FC00020E08091E8008E778093E800CBCF21112C
:103FD000CCCF0AC080914702882361F0853061F020
:103FE0008091E80083FD0AC08091E80082FFF2CF53
:103FF00080E0089582E0089583E0089581E00895C7
:10400000982F973068F59093E900981739F07091E0
:10401000EC002091ED005091F00003C0242F762F8A
:1040200050E021FD02C09F5FECCF3091EB003E7F5E
:104030003093EB003091ED003D7F3093ED003091F7
:10404000EB0031603093EB007093EC002093ED00B7
:104050005093F0002091EE0027FDE5CF80E0089519
:104060008F708093E90081E008958091480287FF76
:1040700011C08091E80082FD05C080914702811146
:10408000F8CF11C08091E8008B770BC08091470278
:10409000882349F08091E80080FFF8CF8091E80004
:1040A0008E778093E80008952091E4003091E50038
:1040B00095E64091EC00842F817040FF23C08091F1
:1040C000E80080FD1DC080914702882399F085306B
:1040D00099F08091EB0085FD11C04091E400509172
:1040E000E5002417350729F3915011F09A01E1CF2B
:1040F00084E0089582E0089583E0089581E00895C2
:1041000080E008954091E80042FFDDCF08950E94CD
:10411000F5200E94FD20E0EEF0E080818160808348
:10412000E8EDF0E080818F77808319BCA7EDB0E0E7
:104130008C918E7F8C9380818F7E8083109246023B
:1041400008950F931F93CF93DF930E94F5200E9451
:10415000FD20C8EDD0E088818F77888388818068D2
:10416000888388818F7D888319BC109247021092C2
:104170004302109245021092440200EE10E0F80152
:1041800080818B7F808388818160888342E060E0CA
:1041900080E00E940020E1EEF0E080818E7F80834D
:1041A000E2EEF0E08081816080838081886080839E
:1041B000F80180818E7F8083888180618883DF9190
:1041C000CF911F910F910895E8EDF0E080818F7EEF
:1041D0008083E7EDF0E080818160808384E082BFAE
:1041E00081E0809346020C94A120E8EDF0E080810C
:1041F0008E7F80831092E20008951092DA00109270
:10420000E10008951F920F920FB60F9211242F9381
:104210003F934F935F936F937F938F939F93AF934E
:10422000BF93EF93FF938091E10082FF0BC08091D9
:10423000E20082FF07C08091E1008B7F8093E10064
:104240000E9478238091DA0080FF1FC08091D800FF
:1042500080FF1BC08091DA008E7F8093DA0080910E
:10426000D90080FF0DC080E189BD82E189BD09B41C
:1042700000FEFDCF81E0809347020E94661D05C0CD
:1042800019BC109247020E94741D8091E10080FFCA
:1042900019C08091E20080FF15C08091E2008E7FFE
:1042A0008093E2008091E20080618093E20080913F
:1042B000D80080628093D80019BC85E080934702C3
:1042C0000E94781D8091E10084FF30C08091E2005F
:1042D00084FF2CC080E189BD82E189BD09B400FE64
:1042E000FDCF8091D8008F7D8093D8008091E10030
:1042F0008F7E8093E1008091E2008F7E8093E200C8
:104300008091E20081608093E200809143028823E3
:1043100011F084E007C08091E30087FD02C081E0D6
:1043200001C083E0809347020E94791D8091E100E3
:1043300083FF29C08091E20083FF25C08091E100C6
:10434000877F8093E10082E08093470210924302CE
:104350008091E1008E7F8093E1008091E2008E7F6A
:104360008093E2008091E20080618093E20042E06D
:1043700060E080E00E9400208091F00088608093DF
:10438000F0000E94771DFF91EF91BF91AF919F9137
:104390008F917F916F915F914F913F912F910F90EE
:1043A0000FBE0F901F9018951F920F920FB60F928D
:1043B00011242F933F934F935F936F937F938F932A
:1043C0009F93AF93BF93CF93DF93EF93FF93C091EE
:1043D000E900CF708091EC00D82FD17080FDD0E83B
:1043E0001092E9008091F000877F8093F00078942C
:1043F0000E9418221092E9008091F000886080935A
:10440000F000CD2BCF70C093E900FF91EF91DF91C9
:10441000CF91BF91AF919F918F917F916F915F915C
:104420004F913F912F910F900FBE0F901F901895B5
:104430001F93CF93DF93CDB7DEB7AA970FB6F8944B
:10444000DEBF0FBECDBFE8E4F2E08091F1008193C2
:1044500022E0E035F207C9F70E94851D8091E8004F
:1044600083FF2EC18091480290914902492F50E06C
:104470004A30510508F024C1FA01EC58FF4F0C9462
:10448000A823803821F0823809F01AC108C0809131
:10449000440290914502992389F082600FC0809177
:1044A0004C028F70873008F00BC18093E900809137
:1044B000EB0085FB882780F91092E9009091E800D5
:1044C000977F9093E8008093F1001092F100D1C0A3
:1044D000282F2D7F09F0F4C0882319F0823061F075
:1044E000EFC080914A02813009F0EAC0933009F0B0
:1044F00080E0809345022EC080914A0281112AC03B
:1045000080914C028F702FEF280F263008F0D8C012
:104510008093E9002091EB0020FF1CC0933021F430
:104520008091EB00806214C09091EB0090619093B9
:10453000EB0021E030E0A90102C0440F551F8A952D
:10454000E2F74093EA001092EA008091EB00886065
:104550008093EB001092E9008091E800877F8093C0
:10456000E8000E943520ACC08111AAC010914A0217
:104570001F778091E3008078812B8093E300809106
:10458000E800877F8093E8000E9435208091E80052
:1045900080FFFCCF8091E30080688093E3001111DD
:1045A00002C082E001C083E08093470289C0805846
:1045B000823008F085C080914A0290914B028C3D78
:1045C00053E0950779F583E08A838AE289834FB7C0
:1045D000F894DE01139620E03EE051E2E32FF0E094
:1045E00050935700E49120FF03C0E295EF703F5FC6
:1045F000EF708E2F90E0EA3010F0C79601C0C096A1
:104600008D939D932F5F243149F74FBF8091E80030
:10461000877F8093E8006AE270E0CE0101960E94F5
:10462000411F16C060914C0270914D02AE014F5F68
:104630005F4F0E94851EBC01892B09F441C09091F7
:10464000E800977F9093E80089819A810E949F1FDC
:104650008091E8008B778093E80032C0803881F544
:104660008091E800877F8093E800809143028093E7
:10467000F1008091E8008E7772CF811121C0809186
:104680004A0290914B0299270297D4F48091E80056
:10469000877F8093E80080914A02809343020E94C2
:1046A000352080914302811106C08091E30087FD8F
:1046B00002C081E001C084E0809347020E947B1D1C
:1046C0008091E80083FF0AC08091E800877F809393
:1046D000E8008091EB0080628093EB00AA960FB611
:1046E000F894DEBF0FBECDBFDF91CF911F9108952B
:1046F0000895CF93809147028823A1F0C091E900EB
:10470000CF709091EC00892F817090FD80E8C82BCC
:104710001092E9008091E80083FD0E941822CF707A
:10472000C093E900CF91089597FB072E16F40094EB
:1047300007D077FD09D00E94AE2307FC05D03EF4D8
:10474000909581959F4F0895709561957F4F08953D
:10475000EE0FFF1F0590F491E02D0994AA1BBB1BDF
:1047600051E107C0AA1FBB1FA617B70710F0A61B71
:10477000B70B881F991F5A95A9F780959095BC0192
:10478000CD010895F999FECF92BD81BDF89A992780
:1047900080B50895A8E1B0E042E050E00C94F62323
:1047A000262FF999FECF92BD81BDF89A019700B4EA
:1047B000021639F01FBA20BD0FB6F894FA9AF99A8A
:1047C0000FBE08950396272F0E94D1230E94D02365
:1047D000252F0E94D123242F0C94D1230196272F1B
:1047E0000E94D1230C94D023DC01CB01FC01F99968
:1047F000FECF06C0F2BDE1BDF89A319600B40D922D
:0C48000041505040B8F70895F894FFCFE5
:10480C0001DF012808641E140A321EC81C251D066F
:10481C001D021DFE1C01E200E900EA00B500B60015
:10482C00B700CD008301CC008A01920194012102D2
:10483C00230224022502260227022A02B300B40016
:10484C006F007000818283F5F4F1F06766F7F6E291
:10485C0000E900EA00B500B600B700CD008301CC3A
:10486C00008A0192019401210223022402250226CE
:10487C000227022A02B300B4006F00700081828309
:00000001FF
