:100000000C947B020C94C2020C94C2020C94C202A7
:100010000C94C2020C94C2020C94C2020C94C20250
:100020000C94C2020C94C2020C94771D0C94491ECD
:100030000C9424140C94C2020C94C2020C94C202BC
:100040000C94C2020C94C2020C94C2020C94C20220
:100050000C94C2020C948C140C94C2020C94C20234
:100060000C94C2020C94C2020C94C2020C94C20200
:100070000C94C2020C94C2020C94C2020C94C202F0
:100080000C94C2020C94C2020C94C2020C94C202E0
:100090000C94C2020C94C2020C94C2020C94C202D0
:1000A0000C94C2020C94C2020C94C2023D033F03A2
:1000B0004A03410343034503470349034C034E03EB
:1000C00050035B0352035403560358035A035D0362
:1000D000440A440A760A760AB00ACE0A0E0C0E0CBE
:1000E000D90A0E0C7C0B7C0BE10BEA0B0E0C080CF6
:1000F000890B890B890B890B890B890B890B890B60
:10010000890B890B890B890B890B890B890B890B4F
:10011000980BA60BAD0BB40BBE0B8E0C8E0CA00C6B
:10012000A00C970CA00CA00CA00C8E0C8E0C9C0CA0
:10013000A00CA00C9C0CB61ED81ECB1FD81ECB1F2B
:100140001D1F401FCB1F951FA81F27001E001F004B
:1001500020002100220023002400250026000400A6
:100160000700060007000800090001000100010067
:100170000100010001000100010001000100010077
:100180000100010001000100010001000100010067
:100190000100010001000100010001000100010057
:1001A0000100010001000100010001000100010047
:1001B0000100010001000100010001000100010037
:1001C0000100010001000100010001000100010027
:1001D0000100010001000100010001000100010017
:1001E0000100010001000100010001000100010007
:1001F00001000100010001000100010001000100F7
:1002000001000100010001000100010001000100E6
:1002100001000100010001000100010001000100D6
:1002200001000100010001000100010001000100C6
:1002300001000100010001000100010001000100B6
:1002400001000100010001000100010001000100A6
:100250000100010001000100010001000100010096
:100260000100010001000100010001000100010086
:100270000100010001000100010001000100010076
:100280000100010001000100010001000100010066
:100290000100010001000100010001000100010056
:1002A0000100010001000100010001000100010046
:1002B0000100010001000100010001000100010036
:1002C0000100010001000100010001000100010026
:1002D0000100010001000100010001000100010016
:1002E0000100010001000100010001000100010006
:1002F00001000100010001000100010001000100F6
:1003000001000100010001000100010001000100E5
:1003100001000100010001000100010001000100D5
:1003200001000100010001000100010001000100C5
:1003300001000100010001000100010001000100B5
:100340000100010001000100010012036B006500C3
:10035000790062006F006100720064000000160303
:1003600071006D006B006200750069006C00640034
:100370006500720000000403090409026D00040115
:1003800000A0FA0904000001030101000921110184
:1003900000012240000705810308000A090401004A
:1003A0000103010200092111010001224D0007058E
:1003B000820308000A090402000103000000092169
:1003C000110100012236000705830308000A090411
:1003D000030001030000000921110100012239007E
:1003E000070584032000011201100100000008ED40
:1003F000FE606001000102000105010906A101057E
:100400000719E029E7150025019508750181020506
:10041000081901290595057501910295017503914A
:10042000010507190029F71500250195F8750181C7
:1004300002C005010980A101850216010026030002
:100440001A81002A8300751095018100C0050C09EE
:1004500001A1018503160100269C021A01002A9CB5
:1004600002751095018100C005010902A101090171
:10047000A10005091901290515002501950575013A
:10048000810295017503810105010930093115814A
:10049000257F95027508810609381581257F95010C
:1004A00075088106050C0A38021581257F950175AE
:1004B000088106C0C005010906A101050719E02948
:1004C000E7150025019508750181029501750881E0
:1004D0000105081901290595057501910295017518
:1004E0000391010507190029FF150026FF00950655
:1004F00075088100C00011241FBECFEFDAE0DEBF17
:10050000CDBF04B603FE27C08091090290910A0274
:10051000A0910B02B0910C028730904BA740B04BDA
:10052000D1F41092090210920A0210920B0210925A
:100530000C0214BE84B7877F84BF0FB6F894A895C9
:1005400080916000886180936000109260000FBE0F
:10055000E0E0F8E3099511E0A0E0B1E0ECE2F3E4BB
:1005600002C005900D92A033B107D9F722E0A0E3B5
:10057000B1E001C01D92A930B207E1F70E94C41A90
:100580000C9494210C94000080E090E0089508956C
:10059000089581E00895089581E008950C94C902BA
:1005A0000E947A0C2FEF84E39CE021508040904021
:1005B000E1F700C000000C94B114FF920F931F9359
:1005C000CF93DF938C01FC01C081D18180915801D0
:1005D000811113C08281882349F0CE010E94F41159
:1005E000F82E682FCE010E949F1104C0CE010E94F8
:1005F000C911F82EBE018F2D04C0CE010E94F41146
:10060000BE010E943304EC01B8010E94CE0288238F
:1006100009F4DDC0B801CE010E946506882309F403
:10062000D6C0C531F0E7DF0708F07EC0C23080E7F2
:10063000D80708F452C0F8018281882309F459C010
:100640000E94A713811102C00E9488130E94C41344
:1006500090E09093FA018093F901FE01E350F04796
:10066000E231F10530F4EA5AFF4F8091F9010C9420
:1006700044218091F901816027C0826025C0846097
:1006800023C0806121C080621FC080641DC080685B
:100690001BC08460886018C08E7F16C08D7F14C018
:1006A0008B7F12C08F7E10C08F7D0EC08F7B0CC0E1
:1006B0008F770AC08B7F877F07C087FB222720F9AF
:1006C00091E0922790FB87F98093F9018091F901DD
:1006D0000E94C8130E947A0C7AC0C115E0E7DE07B9
:1006E00081F0C130D047A9F081E08093320180933E
:1006F0003301C801DF91CF911F910F91FF900C94AE
:10070000CC02F8018281882309F461C00E94D002E2
:100710005EC0F8018281882309F459C08091C80124
:1007200081608093C80153C0CC3380E7D80719F5A6
:10073000F8018281882351F0109232010E945614F0
:10074000909331018093300182E026C08091320184
:1007500081110FC080913001909131010E9462148B
:10076000883C910530F486E20E94EB0886E20E9404
:10077000B30982E019C0CD33D04709F0B5CFF801F5
:100780008281882361F0109233010E945614909365
:1007900031018093300180E20E94020A18C08091EA
:1007A0003301882321F080E20E94090A10C0809161
:1007B0003001909131010E946214883C910598F7B4
:1007C00087E20E94EB0887E20E94B309ECCF80E049
:1007D000DF91CF911F910F91FF9008950C94B60671
:1007E000259A2D988FEF9FEF909387008093860036
:1007F00082E88093800089E1809381000C946B18DB
:100800000E94F0030C94B406282F2D98809180004C
:10081000211108C08F778093800010928900109278
:1008200088000895806880938000233019F48FEF4A
:100830009FEF0FC083E090E0821B9109880F991F02
:100840002FEF3FEFA90102C0569547958A95E2F731
:10085000CA01909389008093880008950C94CB027C
:100860000C942E040895E72FF0E094E0899FE00DAA
:10087000F11D1124EE0FFF1FEE0FFF1FE60FF11DFC
:10088000EE0FFF1FE65BFE4F859194910895880F50
:10089000991FFC01E65BFC4F8591949108950E949D
:1008A00033040E94E805811520E5920708F03FC057
:1008B000811530E4930708F014C1883E910508F5CE
:1008C000803E910508F083C1883A910578F4853A15
:1008D000910508F09EC08130910509F478C108F4B3
:1008E0002FC18430910508F072C12AC18D3B91055A
:1008F00008F49AC0803C910508F422C1805C9109FB
:10090000EAC0811540E2940758F4811521E092076E
:1009100008F05DC1803F910508F412C1906508950B
:10092000811530E3930708F0D9C09F70D4C08115BA
:1009300045E5940708F044C0811524E5920708F0C6
:10094000E7C0811532E5930710F5811541E594075D
:1009500008F0CAC09C0154E0369527955A95E1F7F6
:10096000922F9370482F437021E030E002C0220F95
:10097000331F4A95E2F73C68392B8F708695869530
:1009800040E2849FC0011124822B932B0895AC0177
:1009900043705527282F269526958115934508F0F5
:1009A000A8C081E090E002C0880F991F4A95E2F745
:1009B00040E2249F90011124822B932B9C68089580
:1009C000803340E7940790F4803220E7920708F0E4
:1009D000AAC0811536E5930708F49FC09C013056E4
:1009E0002115304108F0ACC09F709BC0813320E7D7
:1009F000920709F49FC008F49AC0823340E7940735
:100A000009F49BC08333904709F09AC080E093EDCE
:100A10000895853A910509F496C0863A910509F042
:100A200095C082E890E40895883A910509F491C050
:100A3000893A910509F490C08A3A910509F48FC06A
:100A40008B3A910509F48EC08C3A910509F48DC05A
:100A50008B3B910509F48CC08C3B910509F48BC04C
:100A60008D3A910509F48AC0803B910509F489C04B
:100A70008E3A910509F488C08F3A910509F487C030
:100A8000813B910509F486C0823B910509F485C03C
:100A9000833B910509F484C0843B910509F483C02C
:100AA000853B910509F482C0863B910509F481C01C
:100AB000873B910509F480C0883B910509F47FC00C
:100AC000893B910509F47EC08A3B910509F47DC0FC
:100AD00080E094E408950E94470408959927906C5B
:100AE00008959F70906A0895982F8827816F906A63
:100AF000089581E090E002C0880F991F4A95E2F7BF
:100B000040E2249F90011124822B932B9A68089530
:100B1000982F8827846F906A08958F719927982F4E
:100B200088279062089580529047946D089580E0E0
:100B300091ED089580E090ED089580E092ED0895A4
:100B400080E090E0089581E890E4089583E890E4DF
:100B5000089582EE94E4089589EE94E408958AEE6F
:100B600094E4089585EB94E4089586EB94E4089565
:100B700083EB94E4089584EB94E4089587EB94E484
:100B800008958CEC94E408958DEC94E4089583E842
:100B900095E408958AE895E4089582E995E4089536
:100BA00084E995E4089581E296E4089583E296E469
:100BB000089584E296E4089585E296E4089586E235
:100BC00096E4089587E296E408958AE296E408950B
:100BD0008238910549F1B0F48133910509F459C087
:100BE00048F48932910509F44FC08A32910509F41D
:100BF00055C008958533910509F441C089339105A5
:100C000099F00895833E910531F138F4803E9105C5
:100C100091F0823E9105A9F00895863E910501F17B
:100C2000873E910539F108952091F90120FD3BC0DF
:100C300021FD39C008958091F90180FF34C089E316
:100C400041C08091F90182FF30C08091F90184FD9B
:100C50002EC083EE37C08091F90182FD26C0F5CF0A
:100C60008091F90183FF25C08091F90184FD1FC0A7
:100C700087EE28C08091F90183FD1BC0F5CF8091DC
:100C8000F90185FD18C019C08091F90185FD15C0D5
:100C900012C08091F90186FD12C013C08091F90144
:100CA00086FD0FC00CC080EE0DC082EE0BC080E050
:100CB00009C086EE07C089E205C085E303C08AE269
:100CC00001C081E390E0089508950F931F93CF939F
:100CD000FB012281211102C0C1E041C08C01C09101
:100CE0004101C11125C085319047B1F70E946406CA
:100CF00081E0809341010E945614909340018093BB
:100D00003F01109234011092360110923501109279
:100D100038011092370110923A0110923901109265
:100D20003C0110923B0110923E0110923D0117C010
:100D300080913F01909140010E946214883C91058E
:100D400058F690913401E92FF0E0EE0FFF1FEB5CB5
:100D5000FE4F118300839F5F90933401C0E08C2F7E
:100D6000CF911F910F9108950C94C7020C94C80263
:100D7000CF93DF9385B7806885BF85B7806885BFCF
:100D8000A7E1B1E04BE151E061E070E08D91E82F27
:100D9000E295EF70F0E021A18F70EB0102C0CC0F63
:100DA000DD1F8A95E2F7CE019C2F9095922391A3A7
:100DB00092A1892B82A34A175B0741F7A3E1B1E017
:100DC00041E050E08D91E82FE295EF70F0E021A135
:100DD0008F70BA0102C0660F771F8A95E2F7CB01C8
:100DE000962F9095922391A392A1892B82A371E0D3
:100DF000A731B70739F710924601109242011092BD
:100E00004701109243011092480110924401109240
:100E1000490110924501DF91CF910C9400046F922B
:100E20007F928F929F92AF92BF92CF92DF92EF927A
:100E3000FF920F931F93CF93DF9307E111E0C2E47A
:100E4000D1E0EE24E394F12CDD24D394BE0198800C
:100E50001882D8018D918D01E82FE295EF70F0E0B6
:100E600091A18F70970101C0220F8A95EAF7892F0F
:100E7000822B81A382A1C22EC0948C2182A3B0EACE
:100E8000BA95F1F783E1682E81E0782E40E050E0DA
:100E9000D301BD903D018B2D82958F7090E0DC01D8
:100EA00090968C9188809B2D9F70570101C0AA0C51
:100EB0009A95EAF7A82241F49E2D042E01C0990FBD
:100EC0000A94EAF7892F01C080E0882988834F5F60
:100ED0005F4F44305105E1F681A1C822C1A282A131
:100EE000282B22A32196FB018081981641F0D092F5
:100EF0004A010E94561490934C0180934B01F1E0FB
:100F0000C634DF0709F0A2CF80914A018823D1F0CF
:100F100080914B0190914C010E946214069790F0D1
:100F20008091420180934601809143018093470163
:100F3000809144018093480180914501809349014B
:100F400010924A010E94EE0381E0DF91CF911F9140
:100F50000F91FF90EF90DF90CF90BF90AF909F9058
:100F60008F907F906F900895E82FF0E0EA5BFE4F3E
:100F700080810895089590935201809351010895BE
:100F8000E0915101F0915201309721F00190F081F0
:100F9000E02D099480E00895E0915101F091520113
:100FA000309721F00280F381E02D09940895E091BB
:100FB0005101F0915201309721F00480F581E02D2C
:100FC0000994089520914F01309150012817390755
:100FD00071F09093500180934F01E0915101F09195
:100FE0005201309721F00680F781E02D0994089591
:100FF00020914D0130914E012817390771F09093DF
:101000004E0180934D01E0915101F09152013097D2
:1010100021F00084F185E02D0994089508950C9441
:101020000E080E944D140E94B8060E9417150C94D9
:101030006B18BF92CF92DF92EF92FF920F931F93A4
:10104000CF93DF93CDB7DEB72A970FB6F894DEBF04
:101050000FBECDBF0E940F0784E5C82E81E0D82EB9
:1010600000E010E0B02E802F0E94B407E82EF601B9
:1010700021916F01F82EF226B1F40F5F1F4F04305B
:10108000110581F78FEF89838A831B820E94561492
:101090008160782F9D838C8349815A816B818D81FA
:1010A0000E94BD083DC08091C80181FD0E94BA0721
:1010B00080E090E02F2D30E0482FB901082E02C0CB
:1010C000759567950A94E2F760FF25C08E83BF820D
:1010D00081E090E06C0102C0CC0CDD1C4A95E2F787
:1010E0002E2D30E02C213D21232B09F480E0888730
:1010F0000E9456148160782F9A8789874E815F817C
:1011000068858A850E94BD08F801EC5AFE4F8081EF
:101110008C25808305C001968430910569F6ADCF9A
:101120000E94BA170E94C007909153018917A9F035
:101130000E94C007809353012A960FB6F894DEBF31
:101140000FBECDBFDF91CF911F910F91FF90EF9018
:10115000DF90CF90BF900C9430042A960FB6F8948D
:10116000DEBF0FBECDBFDF91CF911F910F91FF90DA
:10117000EF90DF90CF90BF900895CF93DF93CDB7DE
:10118000DEB72B970FB6F894DEBF0FBECDBF4F83EF
:10119000588769877A878B87DE01119686E0FD0183
:1011A00011928A95E9F785E0FE01379601900D923C
:1011B0008A95E1F749815A816B817C818D819E817D
:1011C0000E943A0F2B960FB6F894DEBF0FBECDBF2C
:1011D000DF91CF910895882309F4C4C0823859F46F
:1011E0000E94C00781FDBEC089E30E9492120E9446
:1011F000591389E30CC0833871F40E94C00780FD45
:10120000B1C083E50E9492120E94591383E50E94A7
:10121000D1120C945913843859F40E94C00782FDEE
:10122000A1C087E40E9492120E94591387E4EFCF75
:101230009CEF980F913A18F40E949212EACF90E234
:10124000980F983050F4877091E001C0990F8A95FB
:10125000EAF7892F0E941213DCCF9BE5980F933099
:1012600070F4853A29F0863A31F083E890E005C0C1
:1012700081E890E002C082E890E00C94E20798E5F3
:10128000980F953108F06EC0883A61F1893A69F19A
:101290008A3A71F18B3A79F18C3A81F18B3B89F181
:1012A0008C3B91F18D3A99F1803BA1F18E3AA9F1F5
:1012B0008F3AB1F1813BB9F1823BC1F1833BC9F176
:1012C000843BD1F1853BD9F1863BE1F1873BE9F1E4
:1012D000883BF1F1893BF9F18A3B09F43FC080E09A
:1012E00090E03EC082EE90E03BC089EE90E038C0D6
:1012F0008AEE90E035C085EB90E032C086EB90E05E
:101300002FC083EB90E02CC084EB90E029C087EBEA
:1013100090E026C08CEC90E023C08DEC90E020C0E3
:1013200083E891E01DC08AE891E01AC082E991E06B
:1013300017C084E991E014C081E292E011C083E219
:1013400092E00EC084E292E00BC085E292E008C019
:1013500086E292E005C087E292E002C08AE292E073
:101360000C94F8070895882309F44BC0823859F487
:101370000E94C00781FF45C089E30E9492120E942B
:10138000591389E30CC0833871F40E94C00780FFB1
:1013900038C083E50E9492120E94591383E50E948F
:1013A000D1120C945913843859F40E94C00782FF5B
:1013B00028C087E40E9492120E94591387E4EFCF5D
:1013C0009CEF980F913A58F390E2980F983050F4B0
:1013D000877091E001C0990F8A95EAF7892F0E94E2
:1013E0001813DFCF9BE5980F933020F480E090E056
:1013F0000C94E207885A853120F480E090E00C9448
:10140000F8070895882321F00E9412130C945913B1
:101410000895882321F00E9418130C9459130895FD
:101420008F929F92AF92BF92DF92EF92FF920F93B3
:101430001F93CF93DF937C01D62FC72FFC0105812B
:1014400002950F70128111110E942F130E948B12AE
:10145000882379F0112369F080E28D0F883048F0FD
:1014600082E00E9474120E948B1291E0D82ED9263D
:1014700001C0D12CEC2FE295EF708E2F90E0FC0193
:10148000E859FF4F0C9444218C2F807FCF70882324
:1014900011F0C295C07F112399F0CC2309F487C1C4
:1014A00080E28D0F883010F0D11104C08C2F0E9483
:1014B000121303C08C2F0E9422130E94591377C16C
:1014C0008D2F0E94B309CC2309F4A8C180E28D0FAF
:1014D000883010F0D11104C08C2F0E94181303C063
:1014E0008C2F0E9428130E94591398C18C2F807F43
:1014F000CF70803211F0C295C07FDD2319F0D1305A
:1015000099F01CC0112341F0002311F18C2F013000
:1015100001F50E94421382C1002319F0013009F441
:101520007DC10E9445131AC0112321F0063008F036
:1015300075C10EC0053008F071C110C0112361F0F3
:10154000002331F0F701858180FF31C18F708583E1
:101550008C2F0E94020A62C101112FC18C2FE5C09D
:101560008C2F86958695837019F0813061F056C175
:10157000112321F08D2F9C2F937002C080E090E00A
:101580000E94E2074BC1112321F08D2F9C2F9370F5
:1015900002C080E090E00E94F80740C18D2F112327
:1015A00019F00E94C21602C00E942A170E94AF17AB
:1015B00035C18C2F837009F04CC011112FC12D2F14
:1015C000229526952770220F220F6D2F6F70862F80
:1015D00090E0A0E0B0E04C015D01022E04C0880C58
:1015E000991CAA1CBB1C0A94D2F7D4FF12C08FE02E
:1015F00090E0A0E0B0E004C0880F991FAA1FBB1FB5
:101600002A95D2F7BC01CD01609570958095909593
:1016100003C060E070E0CB01C695C695C370C230D0
:1016200051F080F4682979298A299B29C13071F009
:101630000E948C10F3C0682979298A299B290E946D
:10164000A810ECC00E948C10C501B4010E9470105B
:10165000E5C0112319F08C2F817001C08695882375
:1016600009F4DCC02D2F229526952770220F220F1A
:101670006D2F6F70862F90E0A0E0B0E04C015D010F
:10168000022E04C0880C991CAA1CBB1C0A94D2F719
:10169000D4FF12C08FE090E0A0E0B0E004C0880F5B
:1016A000991FAA1FBB1F2A95D2F7BC01CD016095D7
:1016B00070958095909503C060E070E0CB01C69571
:1016C000C695C370C23051F080F4682979298A29FF
:1016D0009B29C13071F00E946611A0C06829792948
:1016E0008A299B290E94821199C00E946611C50116
:1016F000B4010E944A1192C08D2F90E0FC01E05E7F
:10170000F109E531F10508F04EC0E858FF4F0C949F
:101710004421DF708C2F8F71112321F00E94E31080
:101720008D2F17CF0E9404118D2F0E94090A76C0B9
:10173000112341F0053008F071C08C2F8F710E9489
:1017400029116CC0063008F069C0F7CF112339F0B9
:101750008C2F8F710E94E31061C01123C9F38C2F6D
:101760008F710E9404115AC0112329F08C2F8F71A0
:101770000E94CE1053C00E94C41050C0112349F0E3
:10178000CF718C2F0E94E31063E08C2F0E946B12AC
:1017900045C081E00E947412023008F43FC082E02C
:1017A0000E9474123BC0112331F0002389F28D2F67
:1017B0000E94EB0833C0002391F28D2F0E94B309E1
:1017C0002DC04C2F4F706D2FC7010E94C4020E9484
:1017D000E80F24C0111122C0CF70C23099F038F444
:1017E000CC2369F0C130D1F40E94991817C0C330DE
:1017F00061F0C43099F48D2F0E94EB180FC00E9445
:101800007C180CC00E94B51809C00E94C81806C0F8
:101810004C2F4F706D2FC7010E943204DD20E1F084
:101820000E94671280FD18C0F70112820E946112A7
:101830000E94E310C7010E94380C0E946112DF91E0
:10184000CF911F910F91FF90EF90DF90BF90AF90DD
:101850009F908F900C940411DF91CF911F910F9165
:10186000FF90EF90DF90BF90AF909F908F90089582
:101870000F931F93CF93DF93EC01988189812B8184
:101880003C81232B31F08F3F31F481E09F3F19F4ED
:1018900003C081E001C080E080FD13C0CE010E9442
:1018A000DD02882371F0688179818A810E943E126D
:1018B0008C010E949E110E946510B801CE010E9409
:1018C000100ADF91CF911F910F9108950E942F135D
:1018D0000E943F130E9404130E9459130E945F1834
:1018E0000E94AF1780E090E00E94E20780E090E065
:1018F0000C94F8070E941F130C94660C0E9433127C
:10190000E92FE295EF704E2F50E0FA013297EE305A
:10191000F105B0F4E357FF4F0C944421803F91F060
:1019200018F4803E68F40EC0843F51F40BC0803E32
:1019300048F0813F29F406C093FB882780F9089579
:1019400080E0089581E00895CF93DF9300D000D028
:101950001F92CDB7DEB70F900F900F900F900F90A2
:10196000DF91CF910895CF93DF9300D000D000D0C6
:10197000CDB7DEB726960FB6F894DEBF0FBECDBF4B
:10198000DF91CF9108951F93CF93DF93C0915901B9
:1019900016E080915A01C81799F0D0E01C9FF00121
:1019A0001D9FF00D1124E55AFE4F40815181628147
:1019B0007381848195810E94B30C2196C770E9CF11
:1019C000DF91CF911F91089540918B0150918C012F
:1019D00060918D0170918E0180918F0190919001A5
:1019E0000C94B30CCF938091900182958F7009F085
:1019F0005FC080918D01882309F45AC080915901FC
:101A0000B0915A0170918B01A0918C0140918E018F
:101A100050918F0191E07F3F09F090E0692FC6E07F
:101A20008B1709F445C04115510521F0AF3F21F056
:101A300020E003C021E001C0262F90E020FD35C04A
:101A4000C89FF001C99FF00D1124E55AFE4F218176
:101A50002A132BC02081271328C02281211125C0E1
:101A6000238134812417350710F421503109241BB8
:101A7000350B283C3105C8F4209190012F7020616E
:101A80002093900126E0289FF001299FF00D11245A
:101A9000E05AFE4F80818F70806180838BE891E0F7
:101AA0000E94380CCF910C94C30C01968770B8CF6C
:101AB000CF910895AF92BF92CF92DF92EF92FF92B3
:101AC0000F931F93CF93DF93CDB7DEB761970FB618
:101AD000F894DEBF0FBECDBF8C0185E0F801DE01BA
:101AE0001D9601900D928A95E1F7D8014C911196BF
:101AF0005C9111971296EC9030918B0160918C0162
:101B000080918E0190918F01009731F06F3F31F4F9
:101B100021E03F3F19F403C021E001C020E0B22FD3
:101B2000B170BB2E20FD64C1F801C380D480A090A9
:101B30008D01AA2009F4C3C020919001C816D906CE
:101B400028F0D601A81BB90BCD0104C08095909553
:101B50008C0D9D1DFF24F394883C910580F0F12CA1
:101B6000207F09F09CC07C2DD98AC88A6E2D898976
:101B70000E94A40C8BE891E00E94380CB4C0822F24
:101B8000807F09F054C0561314C0431312C0FE2CBA
:101B9000E1100FC02F702061209390010E94E40C8F
:101BA0008BE891E00E94380C80919001F8018583C8
:101BB0004FC1CD2831F05F3F31F481E04F3F19F440
:101BC00003C081E001C080E080FD03C081E08E257C
:101BD00002C080E090E0F82FF170FF2E80FF1CC063
:101BE0008091590120915A0136E0821709F40DC104
:101BF00090E0389FF001399FF00D1124E55AFE4F17
:101C00006181561306C06081461303C06281E612EB
:101C100003C001968770E9CFFE2CEE2009F418C1AD
:101C200080919001816080939001F12C11C1561335
:101C300009C0431307C0E11005C080919001F8016D
:101C40008583B0C04D875E878D859E850E947E0C02
:101C5000882379F1EE2069F120919001822F8295FD
:101C60008F7090E0029774F080918B0190918C01BD
:101C700098878F831986DB86CA862C87CE010796C4
:101C80000E94380C86E0F801ABE8B1E001900D92BB
:101C90008A95E1F70E94F20C0E94E40C0DC05617E1
:101CA00061F14D875E878D859E850E947E0C811136
:101CB00038C0C8010E94380CFF24F394C9C0C8166C
:101CC000D90608F446C0F601E81BF90BCF01883CA1
:101CD000910508F443C0F12C7C2DD98AC88A6E2D59
:101CE00089890E94A40CEBE8F1E086E0DF011D92F7
:101CF0008A95E9F70E94E40CABC04313D2CFE11000
:101D0000D0CF80919001F8018583C8010E94380CE2
:101D100086E0EBE8F1E0DF011D928A95E9F7FA2C05
:101D200097C0EE2031F220919001822F82958F7022
:101D300090E002970CF4A6CF80918B0190918C01DA
:101D40009A8389831B82DD82CC822E83CE01019609
:101D500097CF809590958C0D9D1DB9CFFE2CEE20D0
:101D600009F4A7CF561333C0431331C0209190011B
:101D700020FD24C0822F82958F70482F50E041159E
:101D80005105E1F0D80115962C9315974F30510568
:101D900049F08F5F982F9295907F822F8F70892BBB
:101DA00015968C93C8010E94380C86E0F801ABE8C8
:101DB000B1E001900D928A95E1F79CCF86E0F801A1
:101DC000ABE8B1E001900D928A95E1F741C04D87F3
:101DD0005E878D859E850E947E0C811153CF8091F8
:101DE0009001816080939001C8010E94380C30C03E
:101DF000EE2009F45ECF4D875E878D859E850E941B
:101E00007E0C882309F455CF3DCF4D875E878D85A5
:101E10009E850E943312292F22952F70223028F49C
:101E20009F7039F0811105C00BC0243028F49F70D9
:101E300049F4805E883020F0C8010E94380CBF2C25
:101E4000FB2C06C0D80115969C91907F91F7F8CF96
:101E50008F2D61960FB6F894DEBF0FBECDBFDF9118
:101E6000CF911F910F91FF90EF90DF90CF90BF9097
:101E7000AF9008951F93CF93DF93CDB7DEB72C9724
:101E80000FB6F894DEBF0FBECDBF4F83588769876A
:101E90007A878B879C87CE0107960E945A0D8823EC
:101EA000D1F09F8188852A853B85232B31F08F3F98
:101EB00031F481E09F3F19F403C081E001C080E06C
:101EC00080FD47C04F81588569857A858B859C85C3
:101ED0000E94B30C3EC086E0FE013796DE011196EB
:101EE00001900D928A95E1F7FF81E8856A857B85EF
:101EF0006115710531F0EF3F31F481E0FF3F19F4D6
:101F000003C081E001C080E080FD23C020915A0120
:101F100030E0C9010196877099274091590150E03E
:101F200084179507F1F1F983EA837D836C8396E04A
:101F3000929FD001939FB00D1124A55ABE4FFE0170
:101F4000319601900D929A95E1F780935A010E9483
:101F5000C30C16E08091590190915A01891771F1D3
:101F6000189FC0011124855A9E4F0E945A0D882344
:101F700029F1E09159011E9FF0011124E55AFE4F0D
:101F80004081518162817381848195810E94B30C6B
:101F90008091590190E001968770992780935901AB
:101FA000D9CF0E947A0C10925A0110925901EBE895
:101FB000F1E086E0DF011D928A95E9F72C960FB6D5
:101FC000F894DEBF0FBECDBFDF91CF911F91089572
:101FD000EF92FF920F931F93CF93DF938C01892B86
:101FE00009F46CC0F12CEE24E394E8012196F80189
:101FF0008491843740F4843008F051C0813081F0FE
:10200000823019F15BC0853709F444C0A8F19CE720
:10201000980F903708F052C08F770E94B30941C0E3
:102020000E5F1F4FFE01849190E2980F983050F49C
:102030008770FE2D01C0FF0F8A95EAF78F2F0E944F
:10204000321314C00E94EB082DC00E5F1F4FFE011B
:10205000849190E2980F983060F48770FE2D01C053
:10206000FF0F8A95EAF78F2F0E9438130E945913A9
:1020700019C00E94B30916C00E5F1F4FFE01C49124
:10208000CC2381F08FE99FE00197F1F700C00000B9
:10209000C150F6CF0E5F1F4FFE01F49003C00E94A7
:1020A000EB088E018F2D882309F49FCFEFE9FFE025
:1020B0003197F1F700C000008150F5CFDF91CF914B
:1020C0001F910F91FF90EF900895089560939F01E5
:1020D0007093A0018093A1019093A2010C94660CCF
:1020E0000F931F9300919F011091A0012091A101D6
:1020F0003091A201DC01CB01802B912BA22BB32BC1
:1021000080939F019093A001A093A101B093A2019D
:102110001F910F910C94660C0F931F9300919F01D8
:102120001091A0012091A1013091A201DC01CB010D
:1021300080239123A223B32380939F019093A00136
:10214000A093A101B093A2011F910F910C94660C72
:102150000F931F9300919F011091A0012091A10165
:102160003091A201DC01CB0180279127A227B32760
:1021700080939F019093A001A093A101B093A2012D
:102180001F910F910C94660C10929B0110929C0170
:1021900010929D0110929E010C94660C41E050E05B
:1021A00060E070E004C0440F551F661F771F8A95DA
:1021B000D2F740939B0150939C0160939D017093D3
:1021C0009E010C94660C41E050E060E070E004C0B9
:1021D000440F551F661F771F8A95D2F780919B0188
:1021E00090919C01A0919D01B0919E01482B592B8B
:1021F0006A2B7B2B40939B0150939C0160939D0124
:1022000070939E010C94660C41E050E060E070E039
:1022100004C0440F551F661F771F8A95D2F740955B
:1022200050956095709580919B0190919C01A09133
:102230009D01B0919E01482359236A237B2340933B
:102240009B0150939C0160939D0170939E010C949F
:10225000660C41E050E060E070E004C0440F551FA0
:10226000661F771F8A95D2F780919B0190919C0100
:10227000A0919D01B0919E01482759276A277B278D
:1022800040939B0150939C0160939D0170939E012C
:102290000C94660C0F931F9300919B0110919C016D
:1022A00020919D0130919E01DC01CB01802B912B6F
:1022B000A22BB32B80939B0190939C01A0939D0133
:1022C000B0939E011F910F910C94660C0F931F9376
:1022D00000919B0110919C0120919D0130919E01E4
:1022E000DC01CB0180239123A223B32380939B01A4
:1022F00090939C01A0939D01B0939E011F910F911B
:102300000C94660C0F931F9300919B0110919C01FC
:1023100020919D0130919E01DC01CB018027912706
:10232000A227B32780939B0190939C01A0939D01CA
:10233000B0939E011F910F910C94660C0895990F14
:10234000990F890FE82FE695E695E695877051E09D
:1023500001C0550F8A95EAF785E0E89FF001112446
:10236000EF56FE4F20E030E070E04081CB01022EBE
:1023700002C0969587950A94E2F78170819584272B
:102380008523842781932F5F3F4F2530310569F7DF
:102390000895990F990F890F682F66956695669530
:1023A000982F977085E0689FB001112440E050E0BD
:1023B00080E0FB01E40FF51FEF56FE4F208130E077
:1023C000092E02C0369527950A94E2F7217033272B
:1023D000042E01C0220F0A94EAF7822B4F5F5F4F51
:1023E0004530510531F70895CF92DF92EF92FF9279
:1023F0000F931F93CF93DF938C01C0909B01D090DC
:102400009C01E0909D01F0909E0180919F01909130
:10241000A001A091A101B091A201C82AD92AEA2A5B
:10242000FB2ACFE1D0E0D701C6010C2E04C0B6953F
:10243000A795979587950A94D2F780FD04C02197B8
:1024400090F780E007C0B8018C2F0E944F040197DD
:10245000B1F38C2FDF91CF911F910F91FF90EF90EF
:10246000DF90CF900895CF93DF93EC010E94F41199
:10247000BE010E944F04DF91CF9108951F93CF9327
:10248000DF93EB0190915801992321F0CB010E9439
:10249000331213C0882349F0CB010E94F411182F86
:1024A000682FCE010E949F1104C0CB010E94C91168
:1024B000182FBE01812F0E944F04DF91CF911F91F1
:1024C00008958091A30185958595859508958091BE
:1024D000A3018770089598E0899F90011124262B0D
:1024E0002093A3010C94E3102091A30180958223F3
:1024F0008093A301982F977069F430E0482F082E3D
:10250000000C550B2417350729F085958595859581
:102510000C94041108959091A301977081E009F43F
:1025200080E00895909112019923F1F09091F901C2
:1025300097FF1AC0982F9695969596959F3181F1A1
:10254000E0910001F0910101E90FF11D877021E098
:1025500030E0A90102C0440F551F8A95E2F7CA0175
:102560009181892B8183089520910001309101018F
:10257000F90132969FEF40E05191851789F09F3F16
:1025800019F4511101C0942F4F5F4E31A9F79F3FAD
:1025900039F0F901E90FF11D97FDFA95828308954D
:1025A0000895909112019923F9F09091F90197FF04
:1025B0001BC0982F9695969596959F3121F1E091A5
:1025C0000001F0910101E90FF11D877021E030E079
:1025D000A90102C0440F551F8A95E2F7CA018095F0
:1025E0009181892381830895E0910001F091010197
:1025F0009F01225E3F4F9281891301C01282319662
:10260000E217F307C1F7089581E090E0E09100013F
:10261000F0910101E80FF91F1082019680329105B7
:10262000A9F708959091C701892B8093C701089558
:1026300080959091C70189238093C70108951092D6
:10264000C70108959091C601892B8093C601089512
:1026500080959091C60189238093C60108951092B8
:10266000C60108959091C501892B8093C5010895F5
:1026700080959091C50189238093C501089510929A
:10268000C50108958093A40108951092A4010895AE
:102690008091000190910101FC0131969C01205E26
:1026A0003F4F80E0919191118F5FE217F307D1F7CF
:1026B0000895E0910001F09101018091C7018083AC
:1026C000E0910001F091010190818091C601892B78
:1026D0008083E0910001F091010190818091C5011A
:1026E000892B80838091A401882361F0E09100010F
:1026F000F09101019081892B80830E944813811100
:102700001092A40180910001909101010C94CC07DA
:102710006DEE7EEF80E090E00E947E2160E082E03E
:1027200090E00E946C2160E083E090E00E946C21C8
:1027300060E084E090E00E946C2160E085E090E041
:102740000E946C2160E086E090E00C946C2180E0B7
:1027500090E00E94662121E08D3E9E4F09F020E02E
:10276000822F089582E090E00C945E21682F82E031
:1027700090E00C946C2183E090E00C945E21682F33
:1027800083E090E00C946C2184E090E00C945E2156
:10279000682F84E090E00C946C2186E090E00C942B
:1027A0005E21682F86E090E00C946C2180910002FD
:1027B000843051F11092C90120E488E190E00FB615
:1027C000F894A895809360000FBE2093600080E08D
:1027D0000E94040480E00E94300483B7817F8460FB
:1027E00083BF83B7816083BF7894889583B78E7FDA
:1027F00083BF0FB6F894A89580916000886180939C
:102800006000109260000FBE089508950C940514A6
:10281000CF930E9406140E940F070E940514C0E087
:102820008C2F0E94B407811104C0CF5FC430C1F760
:1028300001C081E0CF9108950E947A0C0E946B182C
:102840000E94C0070C9430041F920F920FB60F9293
:1028500011248F939F93AF93BF938091C9018111EE
:1028600013C08091F5019091F601A091F701B0910C
:10287000F8014196A11DB11D8093F5019093F601D9
:10288000A093F701B093F801BF91AF919F918F9101
:102890000F900FBE0F901F90189582E084BD93E0BB
:1028A00095BD9AEF97BD80936E0008952FB7F89469
:1028B0008091F5019091F601A091F701B091F80196
:1028C0002FBF0895CF92DF92EF92FF920F931F9345
:1028D0002FB7F8944091F5015091F6016091F701FE
:1028E0007091F8012FBF6A017B01EE24FF248C0157
:1028F00020E030E0C016D106E206F30610F44150A5
:1029000051099A01281B390BC9011F910F91FF90A2
:10291000EF90DF90CF9008951F920F920FB60F9215
:1029200011248F939F93AF93BF938091F501909162
:10293000F601A091F701B091F8010196A11DB11D1A
:102940008093F5019093F601A093F701B093F801FD
:10295000BF91AF919F918F910F900FBE0F901F90DD
:1029600018950E94FC1CF8942FEF87EA91E62150FD
:1029700080409040E1F700C0000087E090EBDC0170
:102980008093090290930A02A0930B02B0930C0269
:102990009CE088E10FB6F894A895809360000FBE84
:1029A00090936000FFCFCF92DF92EF92FF920F9350
:1029B0001F93CF93C0E0E82EF12C8C2F0E94B40718
:1029C00000E010E0C82ED12CC601002E02C0959563
:1029D00087950A94E2F780FD06C00F5F1F4F043011
:1029E000110591F70AC0602F7C2F80E00E9433040C
:1029F000E816F90691F781E004C0CF5FC430E9F62C
:102A000080E0CF911F910F91FF90EF90DF90CF90DA
:102A10000895CF93C82F8CE20E94D314882321F00D
:102A20008C2FCF910C94D31480E0CF910895CF9345
:102A30000E94A713811102C00E948813C5E6C150ED
:102A400049F00E940F078FE39CE90197F1F700C05E
:102A50000000F5CF89E20E94091581110FC18AE2B9
:102A60000E94091581110E94881385E00E940915B2
:102A700081110E94B1140E94B2138093C80187E0B3
:102A80000E9409158823A9F18BE10E94091588236A
:102A900051F08091C80181FB222720F991E0922713
:102AA00090FB81F90EC08EE00E940915882361F029
:102AB0008091C80182FB222720F991E0922790FBA8
:102AC00082F98093C80115C080E10E940915909198
:102AD000C801882341F093FB222720F981E0822757
:102AE00080FB93F904C0892F809580FB90F9909327
:102AF000C8018091C8010E94B6130E94C41390E0DF
:102B00009093FA018093F90180EE0E9409158823C1
:102B100041F08091F901982F909590FB80F9809376
:102B2000F90189E30E940915882359F08091F90180
:102B300081FB222720F991E0922790FB81F9809375
:102B4000F90182EE0E940915882359F08091F9015C
:102B500082FB222720F991E0922790FB82F9809353
:102B6000F90186EE0E940915882359F08091F90138
:102B700083FB222720F991E0922790FB83F9809331
:102B8000F90183EE0E940915882359F08091F9011B
:102B900084FB222720F991E0922790FB84F980930F
:102BA000F90185E30E940915882359F08091F90104
:102BB00085FB222720F991E0922790FB85F98093ED
:102BC000F90181E30E940915882359F08091F901E8
:102BD00086FB222720F991E0922790FB86F98093CB
:102BE000F90181E10E940915882359F08091F901CA
:102BF00087FB222720F991E0922790FB87F98093A9
:102C0000F9018091F9010E94C81387E20E94091519
:102C1000C82F8EE10E9409158111C2608FE10E94C8
:102C200009158111C46080E20E9409158111C860F4
:102C300081E20E9409158111C06182E20E9409159A
:102C40008111C06283E20E9409158111C06484E28F
:102C50000E940915882311F0C06802C0CC2329F016
:102C60008C2F0E94BF136C2F03C00E94BB13682FD0
:102C700070E080E090E0CF910C946610CF910895C1
:102C80008091CC0180FF0BC06091050185E0689FB9
:102C9000B001112475956795759567952BC081FFD7
:102CA00009C06091050185E0689FB0011124759508
:102CB000679520C082FF07C06091050185E0689F8D
:102CC000B001112417C09091CD019923D1F06091EA
:102CD0000401961788F72091050185E0289F90014F
:102CE0001124929FA001939F500D112470E0CA01FE
:102CF0000E9430216038710540F46115710519F4A6
:102D000006C065E070E0862F08958FE7089581E0A2
:102D100008958091CC0180FF08C06091030170E0AC
:102D2000759567957595679521C081FF06C060917F
:102D3000030170E07595679519C082FF04C060912A
:102D4000030170E010C09091CD01992399F060913A
:102D500002019617A0F780910301899FC0011124F9
:102D600070E00E9430216038710540F461157105F2
:102D700019F406C061E070E0862F08958FE708958A
:102D800081E00895803F21F40E944016819504C09F
:102D9000813F29F40E9440168093D0010895823F1C
:102DA00021F40E944016819504C0833F29F40E94BB
:102DB00040168093CF010895893F19F40E94891627
:102DC00005C08A3F31F40E94891681958093D10114
:102DD00008958B3F21F40E948916819504C08C3F91
:102DE00029F40E9489168093D2010895843F21F42A
:102DF0008091CE01816017C0853F21F48091CE0182
:102E0000826011C0863F21F48091CE0184600BC0A6
:102E1000873F21F48091CE01886005C0883F31F45E
:102E20008091CE0180618093CE0108958D3F21F481
:102E30008091CC0181600BC08E3F21F48091CC0148
:102E4000826005C08F3F29F48091CC01846080931B
:102E5000CC010895803F39F48091D00187FF6CC088
:102E60001092D00169C0813F29F48091D0011816D9
:102E7000BCF362C09091CF01823F29F497FF5CC000
:102E80001092CF0159C0833F19F41916CCF354C0E6
:102E9000893F41F48091D10118160CF04DC0109279
:102EA000D1014AC08A3F29F48091D10187FF44C0F3
:102EB000F6CF8B3F39F48091D20187FF3DC010924D
:102EC000D2013AC08C3F29F48091D2011816BCF38C
:102ED00033C0843F21F48091CE018E7F17C0853F9F
:102EE00021F48091CE018D7F11C0863F21F4809125
:102EF000CE018B7F0BC0873F21F48091CE01877F6D
:102F000005C0883F31F48091CE018F7E8093CE0141
:102F100013C08D3F21F48091CC018E7F0BC08E3F7A
:102F200021F48091CC018D7F05C08F3F29F48091E1
:102F3000CC018B7F8093CC018091CF0181110EC099
:102F40008091D00181110AC08091D101811106C008
:102F50008091D201811102C01092CD0108958EECB2
:102F600091E00E94D7070E9456149093CB01809362
:102F7000CA0108951F93CF93DF938091CA01909166
:102F8000CB010E946214AC019091CD01992321F0F4
:102F90002091060130E006C0209107018AE0289FB9
:102FA000900111244217530708F485C08091CF0186
:102FB000C091D001D091D1011091D201811107C0EF
:102FC000C11175C0D11173C0111171C074C09F3F80
:102FD00019F09F5F9093CD01181624F40E944016BB
:102FE0008093CF018091CF0187FF05C00E944016DA
:102FF00081958093CF011C1624F40E944016809383
:10300000D0018091D00187FF05C00E9440168195B4
:103010008093D0016091CF01662331F1C091D0013E
:10302000CC2311F1062E000C770B880B990B0E9414
:10303000372023E333E343E35FE30E949B200E94B6
:10304000FF1F6093CF016C2FCC0F770B880B990B70
:103050000E94372023E333E343E35FE30E949B2096
:103060000E94FF1F6093D0011D1624F40E94891650
:103070008093D1018091D10187FF05C00E948916FC
:1030800081958093D101111624F40E9489168093B2
:10309000D2018091D20187FF05C00E9489168195D7
:1030A0008093D201DF91CF911F910C94AF179F3F76
:1030B00009F08FCFA0CFDF91CF911F910895EEEC53
:1030C000F1E085E0DF011D928A95E9F71092CD01CC
:1030D0001092CC0108950E94A713811102C00E9492
:1030E00088130E94CD138093FB0180FF02C0869558
:1030F00001C080E00C9404042091FB01822F86958E
:10310000482F50E04330510544F48F5F982F990FBA
:10311000822F8170892B8093FB018091FB0181605C
:103120008093FB010E94D1138091FB0186950C9442
:1031300004048091FB01982F969591F09158990F76
:103140008170892B8093FB018E7F91E009F490E0E0
:103150008091FB0190FB80F98093FB010E94D113C9
:103160008091FB0186950C9404048091FB01982FBB
:10317000909590FB80F98093FB010E94D113809180
:10318000FB0180FF02C0869501C080E00C9404041E
:103190009091FB01892F86958F5F8F779170843096
:1031A00028F4880F892B8093FB0102C09093FB01C8
:1031B0008091FB018E7F91E009F490E08091FB010A
:1031C00090FB80F98093FB010E94D1138091FB0159
:1031D00086950C9404042091FB01922F96958927E3
:1031E000982F990F822F8170892B8093FB018E7FFE
:1031F00091E009F490E08091FB0190FB80F98093CD
:10320000FB010E94D1138091FB0186950C9404046C
:103210008091F3010895CF93DF9300D01F92CDB733
:10322000DEB79C0180910002843019F593E0998308
:103230003B832A839093E9008FEF9091E8008150BF
:1032400095FD06C095ED9A95F1F700008111F5CF37
:103250008091E80085FF0DC040E050E063E070E041
:10326000CE0101960E946B1B8091E8008E778093BF
:10327000E8000F900F900F90DF91CF910895CF93BA
:10328000DF9300D01F92CDB7DEB72091000224302B
:1032900031F522E02983805891099B838A8383E05A
:1032A0008093E9008FEF9091E800815095FD06C072
:1032B00095ED9A95F1F700008111F5CF8091E80026
:1032C00085FF0DC040E050E063E070E0CE01019664
:1032D0000E946B1B8091E8008E778093E8000F902E
:1032E0000F900F90DF91CF9108952091000224302C
:1032F000F1F422E02093E9002FEF3091E800215013
:1033000035FD06C035ED3A95F1F700002111F5CFF6
:103310002091E80025FF0BC040E050E065E070E040
:103320000E946B1B8091E8008E778093E8000895DF
:10333000CF93DF93EC0190910002943009F046C0E6
:10334000809112018823D9F08091F90187FF17C07D
:103350009093E9008FEF9091E800815095FD06C0B1
:1033600095E19A95F1F700008111F5CF8091E80081
:1033700085FF2CC040E050E060E270E017C081E0C3
:103380008093E9008FEF9091E800815095FD06C091
:1033900095ED9A95F1F700008111F5CF8091E80045
:1033A00085FF14C040E050E068E070E0CE010E946C
:1033B0006B1B8091E8008E778093E80080E2FE012D
:1033C000A3EDB1E001900D928A95E1F7DF91CF91E5
:1033D00008958091FF01811109C00E94FC1C0E9488
:1033E000591D8091E20084608093E200089510925C
:1033F000FF010895089508950C941C1442E061ECB7
:1034000081E00E94751C42E061EC82E00E94751C24
:1034100042E061EC83E00E94751C42E261EC84E0D2
:103420000C94751C80910202833009F455C030F46D
:10343000813071F0823009F48EC008958A3009F429
:103440007AC08B3009F460C0893009F09CC020C07C
:1034500080910102813A09F096C08091E800877F4F
:103460008093E8008091050290910602892B21F457
:1034700060E283ED91E003C060E080E090E070E006
:103480000E94B61B8091E8008B778093E800089536
:1034900080910102813209F076C0809105029091FD
:1034A0000602009719F0039709F06DC08091E800BB
:1034B000877F8093E8008091E80082FD05C08091BD
:1034C00000028111F8CF5FC08091F1008093F30179
:1034D0008091E8008B7753C080910102813A09F016
:1034E00052C08091050290910602892B09F04BC0D1
:1034F0008091E800877F8093E8008091E80080FF5A
:10350000FCCF8091120136C0809101028132D9F541
:103510008091050290910602892BA9F58091E8001F
:10352000877F8093E8000E94AA1C80910302809309
:1035300012010C947A0C80910102813221F5809164
:10354000E800877F8093E8000E94AA1C8091040213
:103550008093F401089580910102813AA1F4809151
:10356000E800877F8093E8008091E80080FFFCCF2F
:103570008091F4018093F1008091E8008E77809330
:10358000E8000C94AA1C089584B7877F84BF0FB607
:10359000F894A895809160008861809360001092F3
:1035A00060000FBE80E880936100109261000E946D
:1035B0000F080E94FC1C0E94591D8091E20084604B
:1035C0008093E20078940E94E41F0E94110888E032
:1035D00091E00E94BB0780910002853069F40E944F
:1035E000D6138091FE018823B1F30E94081488232A
:1035F00091F30E94551BEFCF0E941908ECCF292FA1
:10360000332723303105C9F060F42130310581F0D2
:103610002230310509F041C08DE690E02AE733E021
:1036200040C021323105E1F02232310531F135C09F
:1036300082E190E027EE33E034C099278130910594
:1036400049F028F0029749F5EAE4F3E005C0E6E71F
:10365000F3E002C0EEE5F3E0849190E09F0121C029
:103660006430D8F4E62FF0E0EE0FFF1FE95DFE4F67
:103670002081318189E090E014C0643070F470E002
:10368000FB01EE0FFF1FE15EFE4F20813181FB0148
:10369000E55EFE4F808190E004C080E090E020E095
:1036A00030E0FA0131832083089580E189BD82E111
:1036B00089BD09B400FEFDCF8091D8008F7D809335
:1036C000D8008091E00082608093E0008091E0006B
:1036D00081FDFCCF0895CF92DF92EF92FF920F937E
:1036E0001F93CF93DF93EC018B017A010E94C91CD9
:1036F000811133C0E114F10439F0F7018081918127
:10370000081B190BC80FD91FC12CD12C011511058D
:1037100019F18091E80085FD16C08091E8008E7750
:103720008093E800E114F10449F0F7018081918170
:10373000C80ED91ED182C08285E00FC00E94C91C6C
:10374000882321F30AC089918093F1000150110967
:10375000FFEFCF1ADF0ADACF80E0DF91CF911F9120
:103760000F91FF90EF90DF90CF9008952091070286
:10377000309108022617370748F06115710539F4B2
:103780002091E8002E772093E80001C0B901FC01E8
:1037900020E06115710579F1809100028823F1F133
:1037A0008530F1F18091E80083FD3CC08091E80014
:1037B00082FD2EC08091E80080FFEBCF2091F300C6
:1037C0008091F20090E0922B6115710551F08830E4
:1037D000910538F421912093F1006150710901960F
:1037E000F3CF21E0089709F020E08091E8008E7780
:1037F0008093E800CECF2111CFCF0AC08091000284
:10380000882361F0853061F08091E80083FD0AC073
:103810008091E80082FFF2CF80E0089582E0089571
:1038200083E0089581E00895209107023091080215
:103830002617370748F06115710539F42091E80023
:103840002E772093E80001C0B901FC0120E061154A
:10385000710591F180910002882309F440C0853000
:1038600009F43FC08091E80083FD3DC08091E800ED
:1038700082FD2FC08091E80080FFE9CF2091F30006
:103880008091F20090E0922B6115710559F088301B
:10389000910540F424912093F10031966150710913
:1038A0000196F2CF21E0089709F020E08091E8002E
:1038B0008E778093E800CBCF2111CCCF0AC08091C6
:1038C0000002882361F0853061F08091E80083FD7B
:1038D0000AC08091E80082FFF2CF80E0089582E084
:1038E000089583E0089581E00895982F973068F552
:1038F0009093E900981739F07091EC002091ED0059
:103900005091F00003C0242F762F50E021FD02C01B
:103910009F5FECCF3091EB003E7F3093EB00309116
:10392000ED003D7F3093ED003091EB00316030933E
:10393000EB007093EC002093ED005093F000209189
:10394000EE0027FDE5CF80E008958F708093E900B9
:1039500081E008958091010287FF11C08091E80005
:1039600082FD05C0809100028111F8CF11C08091C5
:10397000E8008B770BC080910002882349F080918A
:10398000E80080FFF8CF8091E8008E778093E80010
:1039900008952091E4003091E50095E64091EC0017
:1039A000842F817040FF23C08091E80080FD1DC0FE
:1039B00080910002882399F0853099F08091EB0086
:1039C00085FD11C04091E4005091E50024173507B2
:1039D00029F3915011F09A01E1CF84E0089582E03B
:1039E000089583E0089581E0089580E0089540916E
:1039F000E80042FFDDCF08950E946A1D0E94721DFB
:103A0000E0EEF0E0808181608083E8EDF0E080818D
:103A10008F77808319BCA7EDB0E08C918E7F8C935B
:103A200080818F7E80831092FF0108950F931F93F2
:103A3000CF93DF930E946A1D0E94721DC8EDD0E0F3
:103A400088818F77888388818068888388818F7D4B
:103A5000888319BC109200021092FC011092FE01A2
:103A60001092FD0100EE10E0F80180818B7F8083D1
:103A700088818160888342E060E080E00E94751C5C
:103A8000E1EEF0E080818E7F8083E2EEF0E08081E5
:103A900081608083808188608083F80180818E7F4F
:103AA0008083888180618883DF91CF911F910F91FE
:103AB0000895E8EDF0E080818F7E8083E7EDF0E00F
:103AC00080818160808384E082BF81E08093FF01F8
:103AD0000C94161DE8EDF0E080818E7F80831092BB
:103AE000E20008951092DA001092E10008951F920A
:103AF0000F920FB60F9211242F933F934F935F9322
:103B00006F937F938F939F93AF93BF93EF93FF93A5
:103B10008091E10082FF0BC08091E20082FF07C02C
:103B20008091E1008B7F8093E1000E94E31F8091F0
:103B3000DA0080FF1FC08091D80080FF1BC08091F9
:103B4000DA008E7F8093DA008091D90080FF0DC06B
:103B500080E189BD82E189BD09B400FEFDCF81E02D
:103B6000809300020E94E91905C019BC109200025E
:103B70000E94F7198091E10080FF19C08091E20056
:103B800080FF15C08091E2008E7F8093E2008091DB
:103B9000E20080618093E2008091D800806280938F
:103BA000D80019BC85E0809300020E94FB19809127
:103BB000E10084FF30C08091E20084FF2CC080E1EE
:103BC00089BD82E189BD09B400FEFDCF8091D80096
:103BD0008F7D8093D8008091E1008F7E8093E100FB
:103BE0008091E2008F7E8093E2008091E20081600C
:103BF0008093E2008091FC01882311F084E007C0EB
:103C00008091E30087FD02C081E001C083E08093E2
:103C100000020E94FC198091E10083FF29C080917D
:103C2000E20083FF25C08091E100877F8093E1005F
:103C300082E0809300021092FC018091E1008E7F6F
:103C40008093E1008091E2008E7F8093E20080917A
:103C5000E20080618093E20042E060E080E00E9448
:103C6000751C8091F00088608093F0000E94FA1922
:103C7000FF91EF91BF91AF919F918F917F916F9144
:103C80005F914F913F912F910F900FBE0F901F901A
:103C900018951F920F920FB60F9211242F933F93F6
:103CA0004F935F936F937F938F939F93AF93BF9344
:103CB000CF93DF93EF93FF93C091E900CF70809192
:103CC000EC00D82FD17080FDD0E81092E9008091EF
:103CD000F000877F8093F00078940E948D1E1092F0
:103CE000E9008091F00088608093F000CD2BCF70C8
:103CF000C093E900FF91EF91DF91CF91BF91AF9118
:103D00009F918F917F916F915F914F913F912F91F3
:103D10000F900FBE0F901F9018951F93CF93DF93B6
:103D2000CDB7DEB7AA970FB6F894DEBF0FBECDBFF2
:103D3000E1E0F2E08091F100819322E0E930F207C6
:103D4000C9F70E94121A8091E80083FF24C1809174
:103D5000010290910202492F50E04A30510508F0CB
:103D60001AC1FA01E556FF4F0C944421803881F0C6
:103D7000823809F010C1809105028F708093E900AC
:103D80008091EB0085FB882780F91092E90006C03E
:103D90008091FD019091FE01911182609091E80067
:103DA000977F9093E8008093F1001092F100C8C0D3
:103DB000282F2D7F09F0EFC0882319F0823061F0A1
:103DC000EAC080910302813009F0E5C0933009F028
:103DD00080E08093FE012BC080910302811127C0F7
:103DE000809105028F7009F4D6C08093E90020917C
:103DF000EB0020FF1CC0933021F48091EB00806227
:103E000014C09091EB0090619093EB0021E030E0C2
:103E1000A90102C0440F551F8A95E2F74093EA00BA
:103E20001092EA008091EB0088608093EB00109282
:103E3000E9008091E800877F86C08111ACC01091B5
:103E400003021F778091E3008078812B8093E30049
:103E50008091E800877F8093E8000E94AA1C8091EF
:103E6000E80080FFFCCF8091E30080688093E3004E
:103E7000111102C082E001C083E0809300028BC078
:103E80008058823008F087C080910302909104022C
:103E90008C3D53E0950779F583E08A838AE2898334
:103EA0004FB7F894DE01139620E03EE051E2E32F95
:103EB000F0E050935700E49120FF03C0E295EF70CB
:103EC0003F5FEF708E2F90E0EA3010F0C79601C090
:103ED000C0968D939D932F5F243149F74FBF8091FA
:103EE000E800877F8093E8006AE270E0CE010196E7
:103EF0000E94B61B14C0AE014F5F5F4F6091050278
:103F00000E94FF1ABC01892B09F445C09091E8007A
:103F1000977F9093E80089819A810E94141C809178
:103F2000E8008B778093E80036C08038A1F5809157
:103F3000E800877F8093E8008091FC018093F10086
:103F40008091E8008E778093E8000E94AA1C23C02D
:103F5000811121C080910302909104029927029758
:103F6000D4F48091E800877F8093E8008091030279
:103F70008093FC010E94AA1C8091FC01811106C063
:103F80008091E30087FD02C081E001C084E080935E
:103F900000020E94FE198091E80083FF0AC0809110
:103FA000E800877F8093E8008091EB008062809337
:103FB000EB00AA960FB6F894DEBF0FBECDBFDF911F
:103FC000CF911F9108950895CF9380910002882387
:103FD000A1F0C091E900CF709091EC00892F817021
:103FE00090FD80E8C82B1092E9008091E80083FDE5
:103FF0000E948D1ECF70C093E900CF9108950E945A
:1040000006206894B1110C94952008950E947A209E
:1040100088F09F5798F0B92F9927B751B0F0E1F089
:10402000660F771F881F991F1AF0BA95C9F714C039
:10403000B13091F00E949420B1E008950C94942046
:10404000672F782F8827B85F39F0B93FCCF3869572
:1040500077956795B395D9F73EF4909580957095CF
:1040600061957F4F8F4F9F4F0895E89409C097FB4C
:104070003EF490958095709561957F4F8F4F9F4F3F
:104080009923A9F0F92F96E9BB279395F695879583
:1040900077956795B795F111F8CFFAF4BB0F11F446
:1040A00060FF1BC06F5F7F4F8F4F9F4F16C08823ED
:1040B00011F096E911C0772321F09EE8872F762F23
:1040C00005C0662371F096E8862F70E060E02AF064
:1040D0009A95660F771F881FDAF7880F9695879550
:1040E00097F9089557FD9058440F551F59F05F3FB9
:1040F00071F04795880F97FB991F61F09F3F79F00A
:1041000087950895121613061406551FF2CF46958B
:10411000F1DF08C0161617061806991FF1CF86950D
:104120007105610508940895E894BB2766277727F1
:10413000CB0197F908950E94AE200C941F210E9494
:10414000112138F00E94182120F0952311F00C94D1
:1041500008210C940E2111240C9495200E947220A9
:1041600070F3959FC1F3950F50E0551F629FF001CA
:10417000729FBB27F00DB11D639FAA27F00DB11DE3
:10418000AA1F649F6627B00DA11D661F829F22276C
:10419000B00DA11D621F739FB00DA11D621F839FF3
:1041A000A00D611D221F749F3327A00D611D231FC9
:1041B000849F600D211D822F762F6A2F11249F5717
:1041C00050409AF0F1F088234AF0EE0FFF1FBB1F1A
:1041D000661F771F881F91505040A9F79E3F5105D9
:1041E00080F00C9408210C9495205F3FE4F3983EF6
:1041F000D4F3869577956795B795F795E7959F5F83
:10420000C1F7FE2B880F911D9695879597F9089514
:1042100097F99F6780E870E060E008959FEF80EC79
:10422000089500240A94161617061806090608951C
:1042300000240A9412161306140605060895092E82
:104240000394000C11F4882352F0BB0F40F4BF2BF1
:1042500011F460FF04C06F5F7F4F8F4F9F4F089531
:1042600097FB072E16F4009407D077FD09D00E9423
:104270004A2107FC05D03EF4909581959F4F089503
:10428000709561957F4F0895EE0FFF1F0590F49193
:10429000E02D0994AA1BBB1B51E107C0AA1FBB1F3D
:1042A000A617B70710F0A61BB70B881F991F5A95C2
:1042B000A9F780959095BC01CD010895F999FECF9D
:1042C00092BD81BDF89A992780B50895A8E1B0E024
:1042D00042E050E00C948621262FF999FECF92BD42
:1042E00081BDF89A019700B4021639F01FBA20BDBB
:1042F0000FB6F894FA9AF99A0FBE08950196272FEF
:104300000E946D210C946C21DC01CB01FC01F99918
:10431000FECF06C0F2BDE1BDF89A319600B40D9211
:0C43200041505040B8F70895F894FFCFCA
:10432C00A5012808140A321E0819981975193F1985
:10433C000B1901F5F4F1F06766F7F6404D3639B517
:10434C000468043204F9038C03A503BE03D70300ED
:00000001FF
